:020000040800F2
:10000000F04B0020E5020008ED02000881350008F1
:10001000F1020008F3020008F502000800000000E9
:10002000000000000000000000000000F7020008CF
:10003000F902000800000000FB0200089196000889
:10004000FF020008FF020008FF020008FF0200088C
:10005000FF020008FF020008FF020008FF0200087C
:10006000FF020008FF020008FF020008FF0200086C
:10007000FF020008FF020008FF020008FF0200085C
:10008000FF02000800000000A1060008FF020008AF
:10009000FF020008C91F0008FF020008FF02000855
:1000A0008D980008E5980008FF020008FF0200088C
:1000B000FF020008FF02000801990008FF02000883
:1000C000FF020008FF020008FF020008FF0200080C
:1000D000FF020008F59F0008FF020008FF02000869
:1000E000FF020008FF020008FF020008FF020008EC
:1000F000FF020008FF020008FF02000800000000E5
:1001000000000000FF02000800000000FF020008DD
:10011000FF02000800000000FF020008FF020008C4
:10012000FF020008FF020008FF020008FF020008AB
:10013000FF0200080000000000000000FF020008AD
:10014000FF020008FF02000800000000000000009D
:10015000000000000000000000000000000000009F
:10016000000000000000000000000000F91300087B
:10017000FF02000800000000000000000000000076
:1001800000000000FF020008000000000000000066
:10019000000000000000000000000000000000005F
:1001A0000000000000000000FF020008FF0200083D
:1001B000FF020008FF020008FF0200080000000024
:1001C00000000000FF020008000000000000000026
:1001D000FF020008FF02000800F002F800F072F8C9
:1001E00014A696E8000CB244B344DA4501D100F0FD
:1001F00069F8BAE80F000FA696E83000A5EB0405F1
:1002000004EB0607AAEB0704A7F101074FEA15154F
:100210004FEA3414A4F10104AC4201D300F052F8C7
:1002200013F0010F18BFFB1A43F0010300F001F8AF
:10023000DBE7184744C9000064C900000A444FF0D6
:10024000000C10F8013B13F0070408BF10F8014B35
:100250001D1108BF10F8015B641E05D010F8016B7A
:10026000641E01F8016BF9D113F0080F1EBF10F8DE
:10027000014BAD1C0C1B09D16D1E58BF01F801CB01
:10028000FAD505E014F8016B01F8016B6D1EF9D584
:100290009142D6D37047000070470000002300242D
:1002A00000250026103A28BF78C1FBD8520728BF86
:1002B00030C148BF0B6070471FB50CF070F81FBD10
:1002C00010B510BD00F0B6F91146FFF7F5FF0AF0C2
:1002D000FBFB00F0D4F903B4FFF7F2FF03BC00F01E
:1002E000D7F900000948804709480047FEE7FEE7C4
:1002F000FEE7FEE7FEE7FEE7FEE7FEE7FEE7FEE7D6
:1003000004480549054A064B7047000079980008E3
:10031000D9010008F0450020F04B0020F0470020F4
:10032000F047002053EA020C23D010B54C1084EAA9
:10033000530404D54042C1F1000138BF491E1B429D
:1003400004D55242C3F1000338BF5B1E00F0E7F84A
:1003500014F0804F04D04042C1F1000138BF491E63
:1003600014F0004F04D05242C3F1000338BF5B1EAB
:1003700010BD13B540424FF0000070EB0104B8BF50
:10038000012001F0004100281CBF6FF000414FF038
:10039000FF30AFF300801CBD032A40F2308010F024
:1003A000030C00F0158011F8013BBCF1020F624410
:1003B00098BF11F801CB00F8013B38BF11F8013BA1
:1003C000A2F1040298BF00F801CB38BF00F8013B4E
:1003D00011F0030300F02580083AC0F0088051F8BE
:1003E000043B083A51F804CBA0E80810F5E7121DC9
:1003F0005CBF51F8043B40F8043BAFF30080D207E8
:1004000024BF11F8013B11F801CB48BF11F8012BB3
:1004100024BF00F8013B00F801CB48BF00F8012BD6
:10042000704710B5203AC0F00B80B1E81850A0E832
:100430001850B1E81850A0E81850203ABFF4F5AFB2
:100440005FEA027C24BFB1E81850A0E8185044BF0E
:1004500018C918C0BDE810405FEA827C24BF51F87B
:10046000043B40F8043B08BF7047D20728BF31F86F
:10047000023B48BF11F8012B28BF20F8023B48BFC0
:1004800000F8012B70474FF000020429C0F01280E1
:1004900010F0030C00F01B80CCF1040CBCF1020F37
:1004A00018BF00F8012BA8BF20F8022BA1EB0C010C
:1004B00000F00DB85FEAC17C24BF00F8012B00F802
:1004C000012B48BF00F8012B70474FF0000200B528
:1004D000134694469646203922BFA0E80C50A0E867
:1004E0000C50B1F12001BFF4F7AF090728BFA0E815
:1004F0000C5048BF0CC05DF804EB890028BF40F8E1
:10050000042B08BF704748BF20F8022B11F0804F22
:1005100018BF00F8012B704770477047704753EAC7
:10052000020C00F069802DE9F04B4FF00006002B23
:100530001FBFB3FA83F503FA05F424FA05F65E400B
:1005400012BF1643B2FA82F502FA05F4C5F120058E
:100550001EBF22FA05FC44EA0C04203556EA044C7E
:100560004FEA144418BF641C4FF000084FF0000914
:10057000904271EB030C39D3002919BFB1FA81F70E
:1005800001FA07F6B0FA80F700FA07F6C7F120077C
:100590001EBF20FA07FC46EA0C062037B6FBF4FC27
:1005A000A7EB0507103F07F01F0BCBF120062CFA35
:1005B00006F60CFA0BFB44BFB3460026202FA4BF5F
:1005C0005E464FF0000B5BEA060C08BF4FF0010BD4
:1005D00019EB0B0948EB0608ABFB027C06FB02CCCF
:1005E0000BFB03CCC01B71EB0C01C1E70B460246B1
:1005F00041464846BDE8F08B13B5084318BF4FF09D
:10060000FF300146AFF30080BDE81C40704710B5D5
:1006100000F008F8006810BD10B5044600F002F8BC
:10062000046010BD00487047F81F00200048704764
:10063000F81F00207546FFF7F9FFAE460500694632
:10064000534620F00700854618B020B5FFF758FE46
:10065000BDE820404FF000064FF000074FF00008C3
:100660004FF0000BAC46ACE8C009ACE8C009ACE800
:10067000C009ACE8C00921F007018D46704710B5EC
:100680000446AFF300802046BDE81040FFF723BECC
:1006900001491820ABBEFEE72600020070470000AB
:1006A0004FF0A0404021016009F044B910B5044664
:1006B00090F86500012819D0002818BF10BDE06926
:1006C0004CF2F232C1B2C0F60002515CC0F3072313
:1006D0005940515CC0F307435940515C81EA1061B5
:1006E000515C59B1042084F8620010BD002084F8E8
:1006F0006500012084F8610010BD00BF00F00F010B
:100700004A1F022AA16603D2012084F8610010BDAD
:1007100009290DD1C0F30B12002AA4F85C20F3D0F4
:10072000B4F85E00824207D9022084F8620010BD4E
:10073000012084F8620010BD94F86C30D4E9050102
:10074000D4F854C002EB4302E047012084F865006E
:1007500010BD000010B5044690F82400032807D10E
:1007600094F82E000021022884F8241007D01FE0FE
:10077000A16C00228A7194F82E1002290AD154F833
:10078000281F236B54F8140CA28824629847032076
:10079000A07110BD02280BD16069A36D04F1200186
:1007A0000422A1649847032084F8240010BD00BFF0
:1007B000EFF3108072B6636CE3B16069D4F858E06F
:1007C00019689A884FF0030CA36483F806C0F047B9
:1007D00094F83600022803D094F83E0002280DD188
:1007E00004F13000616C2044401A3830606462B615
:1007F00010BD00BF0020A06462B610BD0020606480
:1008000062B610BD80B503464FF0000E4069D3F8C4
:1008100054C003F11C01042283F865E0BDE8804068
:10082000604700002DE9F04381B00546044655F8C5
:100830001C0F002695F845200E80002A00F07C80D1
:1008400094F8642084F86160022A00F0A180012AF3
:1008500000F0E880002A40F09182A16E062900F0A5
:10086000A581052940F08A82E66994F86C10F0B2FF
:100870004FEAD019B1EBD01F484638BF002094F89A
:100880006D70C6F30521884684F86C008F4238BF2E
:10089000B84694F86E20C6F3863E84F86D8096457F
:1008A00098BF724694F86F30C6F3465C9C4584F856
:1008B0006E2098BF6346484584F86F3006D18F425A
:1008C00004D3964508BF9C4500F06A8294F87010E6
:1008D0004CF2F237090141EAC01040EA082040EA30
:1008E000823040EA43514A1DD3B2C0F60007FB5C98
:1008F000C0F307205840385CC1F307435840385CC8
:10090000C1F3036148404CF6D421C0F60001085CF5
:10091000214642EA007041F8200FEFF3108072B6D2
:10092000886A002800F0D68162B694F82400002876
:1009300040F0238208E200BF94F86200002800F033
:10094000F2804CF2F23280F00901C0F60002515CF4
:1009500000EB00234840105C4CF6D421C0F60001A7
:10096000085C190241EA00700F30214641F8200F5F
:10097000EFF3108072B6886A002800F0C58062B676
:1009800094F82400002804BF022084F82400C4E066
:10099000A26E092A00F04481062A00F04D81052A42
:1009A00040F0EC81E36994F86C10D8B24FEAD019AA
:1009B000B1EBD01F484638BF002094F86D70C3F3E8
:1009C0000521884684F86C008F4238BFB84694F8F9
:1009D0006E20C3F3863C84F86D80944598BF6246D0
:1009E00094F86F60C3F3465EB64584F86E2098BFF6
:1009F0007646484584F86F6040F072818F42C0F0BF
:100A00006F8194454FF0000C08BFB64540F06A81F5
:100A100094F87010C3F30213591AB1FA81F14FEA36
:100A2000511C5FE1A16E062900F08280052940F08B
:100A3000A581E66994F86C10F0B24FEAD019B1EBD9
:100A4000D01F484638BF002094F86D70C6F30521CA
:100A5000884684F86C008F4238BFB84694F86E2000
:100A6000C6F3863E84F86D80964598BF724694F82A
:100A70006F30C6F3465C9C4584F86E2098BF634691
:100A8000484584F86F3006D18F4204D3964508BF9D
:100A90009C4500F07D8194F87010002784F8647004
:100AA000090141EAC01040EA082040EA823040EAE9
:100AB00043514A1D4CF2F237D3B2C0F60007FB5C3B
:100AC000C0F307205840385CC1F307435840385CF6
:100AD000C1F3036148404CF6D421C0F60001085C24
:100AE000214642EA007041F8200FEFF3108072B601
:100AF000886A002800F0DA8062B694F824000028A2
:100B000040F03B8120E100BF032084F82400A16471
:100B100062B66069A36D042298476069216D002662
:100B200084F862608847304601B0BDE8F08300BFBA
:100B300094F8601094F8632001F0010102F00F02B4
:100B40008B011202C0F30F3743EA073342EAC111A7
:100B5000194401F136024CF2F236D3B2C0F6000667
:100B6000F35CC1F307215940715CC0F30740484072
:100B7000305C4CF6D42180EA1730C0F60001085CE6
:100B8000214642EA007041F8200FEFF3108072B660
:100B9000886A002800F0908062B694F8240000284B
:100BA00004BF022084F824008FE000BF94F8601096
:100BB00094F8632001F0010102F00F028B01120290
:100BC000C0F30F3743EA073342EAC11119448A1DC3
:100BD0004CF2F236D3B2C0F60006F35CC1F3072143
:100BE0005940715CC0F307404840305C4CF6D4215A
:100BF00080EA1730C0F60001085C214642EA007026
:100C000041F8200FEFF3108072B6886A002800F0D8
:100C10009F8062B694F82400002840F0AE8093E0F4
:100C200094F86000B4F85C200130A66984F8600094
:100C300001200A802074A1E094F8601094F86320E9
:100C400001F0010102F00F028B011202C0F30F3715
:100C500043EA073342EAC111194401F136024CF26A
:100C6000F236D3B2C0F60006F35CC1F30721594057
:100C7000715CC0F307404840305C4CF6D42180EAF8
:100C80001730C0F60001085C214642EA007041F8C6
:100C9000200FEFF3108072B6886A00285ED062B62B
:100CA00094F82400002868D14EE000BF032084F8A7
:100CB0002400A16462B65CE0032084F82400A164EF
:100CC00062B66069A36D04229847022084F864002C
:100CD00053E000BF032084F82400A16462B648E01A
:100CE0004FF0000C94F870104CF2F237090141EA11
:100CF000C01040EA082040EA823040EA46514A1DCE
:100D0000D3B2C0F60007FB5CC0F307205840385C44
:100D1000C1F307435840385CC1F3036148404CF6C7
:100D2000D421C0F60001085C214642EA007041F877
:100D3000200F81F844C0EFF3108072B6886A98B132
:100D400062B694F82400C0B9022084F8240014E0AC
:100D5000032084F82400A16462B60AE0032084F82A
:100D60002400A16462B604E0032084F82400A16496
:100D700062B66069A36D0422984700266069636DBE
:100D8000294604229847304601B0BDE8F08300BFF1
:100D900094F87010C6F302178F427FF47CAE7FE6A2
:100DA00094F87010C6F302178F427FF48FAD2021A4
:100DB00001EB421701EB4811A7819F01A4F85E10D7
:100DC0000121E78184F8641080E5000070B5D2F855
:100DD00000C04CF2F2365FFA8CFEC0F6000616F840
:100DE0000E40CCF307256540755DCCF307446540A4
:100DF000765DCCF303656E404CF6D425C0F6000555
:100E0000AE5D4CEA06761660EFF3108672B6866C1D
:100E1000C6B162B6F1B10A2926D0092920D1D0E99C
:100E200010C6DCF80010891A18BF0321002E08BF75
:100E3000C0F844C002208CF80600C8B2ACF80430F8
:100E400070BD00BF0A291FD0092923D1016C0326D8
:100E50008E7124E090F8241091B9022180F82410BA
:100E60000021C8B270BD00BF90F82E10012907D133
:100E7000022180F82E1083850021C8B270BD00BF0A
:100E80000321C8B270BD00BF032600F1280180F81D
:100E90002E6004E000F12001032680F824608164C4
:100EA00062B64169866D084611461A46B047002170
:100EB000C8B270BD0A2A0DD190F82E20012A84BF35
:100EC00000207047826A04320A60012280F82E20D6
:100ED0001046704790F83620022A0FD390F83E2033
:100EE000012A84BF0020704750F8383F01228271E8
:100EF0008060181D08601046704700BF50F8303FF2
:100F0000012282710061181D0860104670470000C0
:100F100010B590F864C0BCF1020F1CBF022010BDD8
:100F200090F86C4043EA021E8C46012C4CF804ED0C
:100F300002BF4FF6CA648C5202320A2B03D1017CE5
:100F400061B100210174111D1FFA81FE194662462C
:100F50007346BDE81040FFF739BF00BF012010BD48
:100F600010B504464069E16C88474FF0000C606999
:100F7000636DA4F864C004F11C01042284F860C00D
:100F8000BDE8104018470000B0B50446006803F003
:100F90004FFB0B2828D006281CD0002866D194F8D7
:100FA0003C00C00762D0206803F0FEFA04285FD03E
:100FB00003283DD0022807D120680021806A002242
:100FC000002509F0C5F925872068BDE8B04003F089
:100FD0007DBB00BF94F83C102068C90712D1BDE862
:100FE000B04003F087BB00BF94F83C1088073DD5A4
:100FF000206801F0FD0184F83C10BDE8B04003F02A
:10100000AFBA00BF03F0D0FA04281FD0032829D0BC
:1010100002282BD1E18E208F814227D02068628F59
:10102000806A09B209F094F9E08E2087B0BD00BF54
:101030002068B4F93610628F03F084FAE08E2087BE
:101040002068BDE8B04003F041BB00BF2068A18E1E
:10105000C28A914208BFB0BD628F09B2BDE8B040FC
:1010600003F076BAE18E208F81420DD1B0BD00BF72
:101070002068B4F93410628F03F06AFA2068BDE882
:10108000B04003F023BB00BF2068628F09B203F0B9
:1010900059FAE08E2087B0BD0146006800228A8799
:1010A00003F028BB002180F83210818770470000D0
:1010B000F0B581B02DED088B8CB042F24C16C2F227
:1010C0000006B078002800F0E380306940F208079D
:1010D00000F0F851B1F1807FC2F200071CBF010A95
:1010E000B970C1B23C78FE2918BF8C4240F0D08064
:1010F000C0F30461122900F2C980BD78DFE801F075
:101100000A14C66C70786298C6C6C6C6C6C6C6C67D
:10111000C6C6BE0047F29050C1F6FF70D0E900018C
:10112000CDE90001200291E0B08ABAEE090A40BA86
:10113000F2EE090A10210AF0DFFDF08AB0EE408AD3
:1011400040BABBEE0E0AF3EE0E0A10210AF0D4FDEF
:10115000308B9FED52BADFED520AB0EE409A40BAA2
:10116000B0EE4B0A10210AF0C7FD708BB0EE40AA1A
:1011700040BAF1EE040AB0EE4B0A10210AF0BCFDB1
:10118000B6F81100B0EE40BABAEE080AF2EE080A5C
:1011900010210AF0B1FD42F2FC00C2F2000000781A
:1011A000062873D140F6D820C2F2000080ED0D8AE7
:1011B00080ED0E9A80ED0FAA80ED10BA80ED110A35
:1011C00064E000BF307D012860D144F2AC50C2F22F
:1011D00000000121017055E00120307052E000BF95
:1011E000307D00210128317004BF0120707049E07A
:1011F00040F6C412C2F2000240F20C00B2F85830BD
:10120000C2F200000221017043F00300A2F858006E
:1012100047F67120CBF6724000904FF6C010CFF623
:10122000FF70019045EA042000F1A0600FE000BFCC
:10123000000C387004F0B6FE47F29050C1F6FF7013
:10124000D0E900010191397800900802FE30039046
:101250004FF08040049000200590082107900890EE
:1012600009900A900B9042F260000691C2F20000D1
:1012700003A96A4601F080F908E000BF06F11400F6
:1012800009F0AAF82846214600F00EF80020B070B8
:101290000CB0BDEC088B01B0F0BD00BF0000000039
:1012A0000000FA4300000000F0B58BB00D46074681
:1012B00003F070FF42F24C1440F20C03C2F200043F
:1012C00040F2181642F2FC02C2F200032478C2F285
:1012D0000006C2F200021B78B6F87C101278002CCF
:1012E00018BF0124E403022B08BF4FF48044022AF4
:1012F0004FF4007200F0040302EA500245EA83133F
:1013000008BF4FF480441A4400F00800B1FA81F19C
:1013100096ED020A42EAC01049099FED351A40EAEB
:101320004130B8EEC00A051920EE010AFAEE090AAA
:10133000B2EE091A102009F057FBB6F90C1000BAEA
:1013400000EE101A9FED2B1A000CB8EEC00AADF893
:10135000000020EE010AFBEE0E0AB3EE0E1A10207A
:1013600009F042FB00BA000CADF8020003F00AFFDE
:1013700010EE100A0AF0A2FF9FED1B0B53EC102B8E
:101380000AF09EFE0AF06AFE00EE100AFAEE080A63
:10139000B2EE081A102009F027FB010A8DF80500AB
:1013A0004FF47A40ADF80600F8B240EA052040F06C
:1013B000007002904FF080408DF8041003900020E0
:1013C00008210490CDE90510CDE90700CDE9090019
:1013D00042F26000C2F2000002A96A4601F0CCF8B5
:1013E0000BB0F0BD00BF00BF52B81E85EB511F40CF
:1013F000C3B8323735FA8E3D03F028BE80B586B0CB
:1014000003A9019105900598D0ED090A90ED0A0A0B
:101410000AF0C2FC019880ED010A90ED010AB5EED8
:10142000400AF1EE10FA0ADAFFE7019890ED010A9E
:101430009FED101A30EE010A80ED000A02E00498D8
:101440000390FFE7019890ED000A9FED0B1A20EE44
:10145000010ABDEEC00A10EE100AADF80A000498A9
:101460000599C862039805990863BDF80A0006B09B
:1014700080BD00BFDB0FC940E0F82246028811FBA7
:1014800001F3524311FB313393429EBF080CC1EA72
:1014900000407047B0B5458811FB31F005FB05F3FE
:1014A000002948BF6D42984238BF0346A2EB0300B3
:1014B0004FEA014498BF0D1403F0B2F90146002C25
:1014C00048BF4942A8B2BDE8B040C1EA00407047F9
:1014D00010B5044642F24C10C2F2000094F84A10D3
:1014E00042F24D120078C2F2000201F0FC011278C3
:1014F000084340EA4201206884F84A1003F098F853
:10150000A0F10A0102290BD3062819D010BB94F8C8
:101510004A00C0071ED02068BDE8104003F0D6B8CE
:1015200094F84A00800758BF10BD206803F018F8EF
:1015300094F84A0000F0FD0084F84A000AE000BF79
:1015400094F84A00C00705D12068BDE8104003F0B8
:10155000D1B800BF10BD000010B5044600680021DE
:10156000A4F84A1003F0C6F8206800210022BDE864
:10157000104002F0E7BF0000002180F83210C0F8F0
:101580004210C0F84610A0F84A10704710B5044643
:1015900090F84A00410718D5A28F618F606B1346FF
:1015A000914238BF0B4688BF0A468283B4F8402078
:1015B000E18FC283228F01830021438380F836109C
:1015C000026007F00FFF94F84A0000F0040100F0F9
:1015D000F70040EA4100216884F84A00CA6AC869F5
:1015E000116807F0D5FB206800210022BDE81040FB
:1015F00002F0AEBF10B50446006803F019F80628E3
:1016000018BF10BD94F84A0041070BD4010739D424
:10161000B4F84210B4F84420914218BFA4F8441022
:1016200036E000BF00071CD4A28F618F606B1346A9
:10163000914238BF0B4688BF0A468283B4F84020E7
:10164000E18FC283228F01830021438380F836100B
:10165000026007F0C7FE94F84A0040F0080084F8E2
:101660004A00606B07F002FF616BA4F8480091F834
:1016700037209AB1084606F0E7F978B1206803F000
:1016800039F80BE0B4F84810A4F84210A4F844105C
:1016900000F0F70084F84A00A4F84810B4F84810A5
:1016A000B4F84620206841EA0241BDE8104002F04B
:1016B000CDBF00008EB00C908DF82F10ADF82C200F
:1016C000ADF82A309DF82F008DF813004FF0FF3051
:1016D00003909DF82F0028B1FFE79DF82F000928FF
:1016E00025D1FFE7BDF92C004DF6F101CFF6FF71D2
:1016F00088421CDBFFE7BDF92C0042F20F718842E3
:1017000015DCFFE7BDF92C00012804DBFFE7002012
:101710008DF8370084E0BDF92C00B0F1FF3F04DC08
:10172000FFE709208DF837007AE0FFE7FFE79DF833
:101730002F0018B9FFE70920019004E09DF82F0061
:1017400001380190FFE701988DF827009DF82F00E0
:101750008DF828009DF82F00092803D1FFE700200D
:10176000009004E09DF82F0001300090FFE7009802
:101770008DF8290000200290FFE7029802284ADC39
:10178000FFE7029A0DF12700805CC0EB0040BDF935
:101790002C10084448F63961C3F6E301A0FB0110A0
:1017A000400808A921F81200BDF82A00029A31F871
:1017B000121088420BDBFFE7BDF82A00029A08A945
:1017C00031F81210401A05A941F822000AE0029AE5
:1017D00008A830F81200BDF82A10401A05A941F8EF
:1017E0002200FFE7029905A850F8210003998842DA
:1017F0000CD2FFE7029905A850F821000390029946
:101800000DF12700405C8DF81300FFE7FFE7029819
:1018100001300290B1E79DF813008DF83700FFE723
:101820009DF837000EB0704784B0ADF80E000291FD
:1018300000208DF807000090FFE7009809281CDCC5
:10184000FFE7BDF80E000299009A31F812108842A5
:101850000EDBFFE7BDF80E000299009A01EB420192
:101860004988884204DAFFE700988DF8070004E011
:10187000FFE7009801300090DFE7BDF80E00029905
:10188000898A884204D1FFE709208DF80700FFE725
:101890009DF8070004B070472DE9F04741F6307518
:1018A000C2F200056A6B696BE86AEF6993B2BBB17B
:1018B0006A6AAE6AB24242F2E006C2F200060CBFA9
:1018C000B260B2687478CCB13178BB1A18BF01230A
:1018D000012937D197421CBF0021317032E000BF8F
:1018E00042F2E000C2F200004178012940F0848019
:1018F000002141700220E862BDE8F087090C19441C
:10190000042303EB810141F23013B3FBF1F743F2FF
:101910002C43C2F20003013F07FB0137C6E9031362
:10192000974247D14FF4807131800021C6E90511FB
:10193000EB612B6240F00200D31AC6E90112E862A3
:1019400018BF01237269013272612F6BBA424AD308
:1019500000220029726146D193B3D6E9030172686F
:1019600000EB0108A8F1010941F8042B8945316118
:101970002DD341F6247A05F13807C2F2000A0AE0B5
:101980005AF82010204608378847316941F8040B7F
:10199000894531611AD37C6838680328F0D1DAF8B8
:1019A0000810204688473169043441F8040B0220AE
:1019B0003161E5E740F00400E862BDE8F08700BF70
:1019C000012140F001003170E8620CE0F068E96844
:1019D0004844884203D9D5F80880A8683061C5F822
:1019E0001C80C5F8208070680130706038BFBDE889
:1019F000F087B0690130B061BDE8F08710B50446EA
:101A0000808988B101380104A0811CBF002010BD6D
:101A1000B4F91400217E90FBF1F1A06809B200F046
:101A20002BF90120A07310BD012010BD80E80E002D
:101A30000121C1817047000010B5044640680021B3
:101A4000002208F085FCD4E90001B4F914204B7899
:101A50000A8692FBF3F38A80CB80042107F094F985
:101A600020680021002207F017F92068B4F912104D
:101A7000E28A07F011F9E08A218A484344F6D351FB
:101A8000C1F26201A0FB0101012000EB9110A081D5
:101A900010BD00002DE9F041026A014690F884C0B3
:101AA000106840F040001060D0684FF6FF709081E1
:101AB0009068C00709D19068C00704BF90685FEACA
:101AC000C07002D19068C007F2D0D068136880B2AD
:101AD00023F0400313608A6E800802FB00F3B1F923
:101AE0007EE01A14A1F878000025BEF1000F48BF6F
:101AF000A5EB234291F88C384C78012B02FB04F3C0
:101B00001FD1B1F88820012797400744013F1741B2
:101B100020FA02F617F47C4F08BFBDB201F18A0724
:101B200006FA02F837F8155037F81660A0EB0800EF
:101B3000AD1B10FB05F01041304403FA80F393FB1A
:101B4000F4F2C888CA80101A00B28A688B800346F3
:101B5000BEF1000FD8BF5B421A448A6091F886201C
:101B600001EB8202906291F88600013081F88600D4
:101B700091F88600604505D30022BCF1000F81F882
:101B800086202BD0ACF1010003280CF0030E03D209
:101B90000020002211E000BF0CF0FC030020002216
:101BA00001EB8007D7E90A65D7E90C4732442A449C
:101BB0002244043083423A44F2D1BEF1000F0DD0EA
:101BC00001EB8000836ABEF1010F1A4406D0C36A9C
:101BD000BEF1020F1A441CBF006B02440020C1F882
:101BE0008020BDE8F081000080B5426AD0F88030E6
:101BF000A2FB03CEDB1702FB03EE90F884304FEA22
:101C00001C4242EA0E42002B18BF92FBF3F20A80FC
:101C100083898281D31A4382BDE8804006F0D8BF11
:101C200010B590F88410044621B104F12800890011
:101C3000FEF74BFC012084F8850010BD016F4FF0CA
:101C4000FF32B2FBF1F1B0F86C20816602EB820149
:101C5000490041620021A0F87A1090F88410012216
:101C60000029A0F87E2008BF704780B52830890081
:101C7000FEF72BFC80BD0000C288C1808A1AA0F844
:101C80007A204278514381807047000070470000FD
:101C9000F0B581B0044690F85A00062844D00528D3
:101CA00050D0002858D1B4F85800C00754D0B4F927
:101CB0005400226CC103666BB1FBF2F1B2EBC03F82
:101CC00088BF0121E1640027012506F18A004FF455
:101CD0000061A6F87A70A6F87E50FEF7D4FB206863
:101CE000002186F88C7802F0B1FC206802F0C6FC76
:101CF00020680021806A002208F02AFB2068002169
:101D0000806A08F021FB206802F0E0FCB4F858007B
:101D100084F85A5020F00100A4F8580001F05AFA53
:101D2000E06301B0F0BD00BFB4F85800800706D5ED
:101D3000606B4AF2A001A0F87C1004F033F9002097
:101D400008E000BF206802F0D5FC606B012180F83C
:101D50008C18062084F85A0001B0F0BD10B5044676
:101D6000006802F065FC062840F0C08094F85A0034
:101D70000138032888BF10BDDFE800F0025A2A446A
:101D800001F028FAD4E90F12411A914240F28A80F8
:101D9000606BC088A4F8480001F01CFAA16BE063F6
:101DA000084604F069FBA06B202104F073FBA06BD4
:101DB0004FF40041012204F03DFBA06B202104F010
:101DC00077FB00202065022084F85A0010BD00BF78
:101DD000216DB1F5803F05DB606B42780132B1EBDC
:101DE000024F35D3A06B04F0E1FA00284CD0A06B71
:101DF0004FF40041012204F01DFB042084F85A0036
:101E000010BD00BF216DB1F1011F05DB606B427891
:101E10000132B1EB024F1BD9A06B04F0C7FA98B3A3
:101E2000206802F067FC052084F85A0010BD00BF4E
:101E3000A06B04F0BBFA38B3616BB4F84820C888D3
:101E4000801A00B210F5B66F38DA4FF6FF7039E03D
:101E5000B0F87810B0F88820D1400022B2EB912F72
:101E600012D122688388926A00EB41009288D21ACC
:101E7000A4F85620B0F98A1001FA82F30133002940
:101E800018BF5A08A0F88A20A06B04F023FB216D2C
:101E900022680B18906A19B22365BDE8104008F05B
:101EA00053BA00BFE26C2068514349004FF6FF72FD
:101EB0009143BDE8104002F0C9BB00BFB0F5B66F5A
:101EC00010DD0120A1F87E00032084F85A00497833
:101ED000A06B4FF4C03202EB01410122BDE810407B
:101EE00004F0A8BA94F85A000328F0D010BD0000FE
:101EF000002180F8321080F85A10704780B584B005
:101F00004EF60000C0F60100029002984FF4006106
:101F100009F046FEADF80600BDF8060040F21811C3
:101F2000C2F20001B1F88A18884204D0FFE700200D
:101F30008DF80F0021E00020ADF80400FFE7BDF8A8
:101F40000400B0F5806F14DAFFE70298BDF80420B2
:101F500030F8120040F21811C2F2000101EB420108
:101F6000A1F88A00FFE7BDF804000130ADF80400D5
:101F7000E5E701208DF80F00FFE79DF80F0004B0A2
:101F800080BD000080B584B040F21810C2F200009D
:101F900000908A30039003984FF40061019109F09A
:101FA000FFFD0099019AA1F88A0803994EF60000F6
:101FB000C0F6010003F00AFB8DF80B009DF80B0042
:101FC00000F0010004B080BD42F26000C2F20000E7
:101FD00000F01ABC41F6B870C2F20000027F02F0B5
:101FE000FD01012942F20001C4F2020106D002F013
:101FF000FE02022A16D00021017770470B6823F4F5
:1020000000730B600B6843F400630B600B6823F4F0
:1020100000630B600B6843F400730B6002F0FE0278
:10202000022AE8D10A6842F480520A600A6822F45F
:1020300080520A600A6842F480620A6000210177D7
:102040007047000070B542F210060446C4F2020662
:1020500001F0C0F8054600BF3068C00306D501F0A6
:10206000B9F8401BA042F7D9032070BD30684CF28C
:10207000FA3101400AD041F6B870C2F2000042685D
:102080000A4342600120316070BD00BF3068C00764
:102090004FF0000008BF70BD0121316070BD00002D
:1020A0002DE9F0410446EFF3108072B642F2681158
:1020B00004EB0410C2F2000101EB40073E4636F883
:1020C0000C5F40F6343104EB4400C2F20001B6F874
:1020D000028001EB001062B602F066FA317D71B940
:1020E000013802280BD341F6E470C2F2000050F828
:1020F000240006F099FD788302F0A6FF0546EFF371
:10210000108072B63580A6F8028062B6BDE8F08114
:10211000B0B540F63431044600EB4000C2F2000195
:1021200001EB0015284602F03FFA42F2681C04EB6E
:102130000413C2F2000C03380CEB4301002210F12F
:10214000030F41F6E0704CF813204A608A609CBF90
:10215000CA606A62C2F2000050F82400C1F81A2076
:10216000C1F81620C1F81220002103F02DFC41F621
:10217000DC70C2F2000050F82400002103F024FCBF
:1021800041F6E470C2F2000050F8240006F076FD3B
:1021900044F2A850C2F2000050F82400BDE8B0405C
:1021A00003F0DCBD2DE9F04F83B0009005F038FB63
:1021B00005F000FB40F21810C2F20000FFF76AFCC5
:1021C00040F63430C2F2000002F0EEF941F6E4715C
:1021D000C2F2000144F2A85A0968C2F2000ADAF811
:1021E000002049691368B1F80480044602A910462A
:1021F0009847029802F09EFA0FFA88F63146834615
:1022000002F0C0FADAF8001042F2681991F884106E
:102210000546C2F20009E9B341F6E070C2F20000DF
:10222000B9F90C1000682AB2891A03F0FFFB0746BF
:1022300041F6DC70C2F20000B9F90E100068A1EBA3
:10224000254103F0F3FB012C08D144F2A050C2F267
:102250000000006803F0A8FA0746000CC7EA004136
:1022600040F2C600C2F20000FFF708F9314604460A
:1022700002F0C2FADAF80010064691F884207AB12A
:102280000846314603F092FC0138B0FA80F0470965
:1022900007E000BF00270020012CD6D0DEE700BFFA
:1022A00000270298290CC9F81240C9F80000C9F8A3
:1022B00004B0A9F80850A9F80A10C9F81660A9F8DE
:1022C0001C8002F0F1FE40F63430C2F200003FB153
:1022D0000121002202F05AF95DF80C0BBDE8F08FE5
:1022E00040780628F8D140F21810C2F20000808829
:1022F0000DF10601ADF8060041F67860C2F200006B
:1023000007F0B8FF5DF80C0BBDE8F08F2DE9F04148
:1023100044F2A85140F63840C2F20001C2F2000077
:10232000086004F043FB40F6D035C2F200052846B1
:1023300003F042FB40F21816C2F200063046FFF7E7
:102340007DFC41F6E478C2F2000840F6A81741F699
:102350007864D8F80010C2F20007C2F200043846D0
:1023600022463346FFF762FB44F29850C2F2000067
:10237000076040F6FC30C2F2000003F01DFBD8F805
:1023800000002946324606F0E9FC40F6A430C2F2CD
:10239000000003F011FB40F67830C2F2000003F0B9
:1023A0000BFB41F6D870C2F20000006840F2B401A5
:1023B00042F2681640F66835C2F20001C2F2000629
:1023C000C2F20005C0E902612846214603F0E8F99F
:1023D00044F2A050C2F20000056044F2A45141F65C
:1023E0008850C2F20001C2F20000086005F024FB30
:1023F0000020FFF78DFED8F80000012186F820109C
:1024000006F0A0FCD8F80010F060084606F09AFC30
:1024100040F63434000CC2F200043082204602F050
:1024200047F9D8F8000006F095FC01462046002246
:10243000BDE8F04102F086B8FF2808BF704702F0FF
:1024400083BE0000B0B5044600F0C4FE054640F26D
:102450000000C2F200004068611C18BF044400BFC5
:1024600000F0B8FE401BA042FAD3B0BD10B590F802
:102470005C30013B012B69D800685FEA417ED0F8EF
:1024800058C00CF0010300D01BB311F0380F02D07C
:102490001CF002041DD011F4E07F02D01CF00404F3
:1024A00017D011F4F05F02D01CF0080411D011F421
:1024B000604F02D01CF010040BD011F4403F02D04A
:1024C0001CF0200405D011F47C0F06D01CF0400451
:1024D00003D1C46D44F00104C465BEF1000F18BF00
:1024E000002B3BD111F0380F18BF1CF0020335D17F
:1024F00011F4E07F18BF1CF004032FD111F4F05F3A
:1025000018BF1CF0080329D111F4604F18BF1CF04C
:10251000100323D111F4403F18BF1CF020031DD13C
:1025200011F47C0F18BF1CF0400317D10B061BD40D
:10253000CB0504D5D0F8E0301A43C0F8E02000F114
:102540005402002013681943116010BD00F16002AD
:102550000120022113681943116010BDC36D43F0BF
:102560000203C3650B06E3D5D0F8DC301343C0F893
:10257000DC30CB05DED4E2E790F85C30022B17D1DB
:102580002DE9F0410668D6F8C4309B0216D4D6F87F
:10259000C430D1E90075D1F808E00C69C3F3014CEF
:1025A000A5B144EA070343EA0E0343F0804E11E06D
:1025B000016E41F00801016601207047016E41F48F
:1025C000007101660120BDE8F08100BF44EA874345
:1025D0004EEA030ED1E90757D1E9058445EA0765BC
:1025E000CB682C43456D44EA08040CEBCC0744EA65
:1025F000034405EBC70345F837E05C60CF6887B15B
:102600004CF6E425083303320024C0F6000500BF71
:10261000171957F8037C1F51CF680434EF5DBC4293
:10262000F6D3012101FA0CF1C6F8CC108165002027
:10263000BDE8F08190F85C20013A012A14D880B5F9
:102640000A68BAB101F1040E9EE80450D1E90431E0
:10265000406C43EA4E7E41EA8C7100EBC20340F8C5
:1026600032E05960002080BD016E41F00201016638
:1026700001207047D1E90323D1E901CED20649698F
:1026800042EA8E7242EA0342006C114340F82C1079
:10269000002080BD70470000704700002DE9F04326
:1026A00090F85C70022F1BD1D0F800C040291FD1D8
:1026B000DCF890703F0700F09D80DCF89070FF011F
:1026C00046BFDCF88070C7F340270027DCF8906035
:1026D000C6F3012606EB070C00F148071DE000BF1A
:1026E000016E41F0080101660120BDE8F08300BFE2
:1026F000DCF898703F077DD0DCF89870FF0146BF8A
:10270000DCF88070C7F300270027DCF89860C6F378
:10271000012606EB070C00F14C073F680CEBCC06DA
:1027200057F8365007EBC60E15F08045556057F840
:10273000365025F0604408BFC5F38A44146057F84A
:10274000365005F00055956057F8364004F00044C7
:102750001461BEF80440D461BEF8064014F00F04C2
:10276000D460DEF8044004F480145461DEF80440C0
:1027700004F4001494619EF8074004F07F0414628E
:10278000DEF804404FEAD474546228D04CF6E428B2
:102790000024C0F6000800BF0EEB0406377A651C63
:1027A0001F55D76818F80770BD4218D2757A1F19DF
:1027B0007D70D56818F80590A51C4D450FD2B57AE7
:1027C000BD70D56818F80590E51C4D4507D2F57A1F
:1027D0000434FD70D56818F80550AC42DCD30068AD
:1027E00040290CBFC0F894C0C0F89CC00020BDE8D0
:1027F000F08300BF016E41F4807101660120BDE8E5
:10280000F0830000704700002DE9F04F85B00446CA
:102810000068016D426DD0F850B0456D076D466D92
:10282000036D01EA02080493436D0393036D029361
:10283000436D0193D0F854A0D0F850905FEA4963FB
:1028400007D51AF0400104D0402101652046FFF76A
:10285000D9FF0BEA050B5FEAC95008F4E0550ED525
:102860001AF480700BD02068D0F8D810D0F8E0208F
:1028700011404FF480720265204600F013FA374091
:102880000BF007062DB1206829460565204600F0AB
:102890000DFA07F038052EB120683146066520464E
:1028A00000F0CEF92DB1206829460565204600F0DC
:1028B000DDF95FEA895009D51AF4007006D0206866
:1028C0004FF400710165204600F0F2F95FEA0960FB
:1028D0000DD51AF080000AD02068D0F8D410D0F8B6
:1028E000DC20114080220265204600F0DDF95FEA1D
:1028F000894009D51AF4005006D020684FF40051E1
:102900000165204600F0CCF95FEA0940DDE90110DD
:1029100000EA010509D51AF4004006D020684FF4FA
:1029200000410165204600F0B9F9DDE903100840D7
:102930005FEA494105F460210AD51AF4804207D0C4
:1029400022684FF480431365226E42F080022266B3
:1029500000F4710521B1206801652046FFF79CFE57
:1029600025B120680565206E28432066206E28B1B9
:10297000204605B0BDE8F04FFFF78CBE05B0BDE8BE
:10298000F08F0000002804BF0120704770B5044696
:1029900090F85C0028B9002084F85D00204600F023
:1029A00017F92068816921F01001816100F012FCA3
:1029B000054600BF20688169090705D500F00AFCBB
:1029C000401B0B28F6D310E0816941F001018161C1
:1029D00000F000FC054600BF21688869C0070DD1E2
:1029E00000F0F8FB401B0B28F6D3206E032140F0CB
:1029F00001002066012084F85C1070BD4AF200409E
:102A00008A69C4F20000A0F5804342F002029942B4
:102A10008A6105D162684CF20013CFF6FF73C25091
:102A2000227C8B69012A23F0400318BF40338B615D
:102A3000627C8B69012A23F4804308BF03F580433D
:102A40008B61A27C8B69012A23F4805318BF03F5A4
:102A500080538B618D69D4E902E325F4407545EA22
:102A60000E058D618D6925F0A4058D610D6925F038
:102A700010050D61A3B1012B0ED0022B09D08D6979
:102A8000032B45F080058D610D6945F010050D6142
:102A900006D1202301E000BF04238D692B438B6105
:102AA000D4E90535D4E907266FF0FF0C013D0CEBA6
:102AB000022242EA4562751E2A430025CFF6FF75C1
:102AC00005EB03431A43BEF5407FCA6110D1D4E938
:102AD00009E3D4E90B62013B0CEB062633436FF0AC
:102AE0000F0606EB02121A4305EB0E431A43CA60A7
:102AF00004F134064CCED1F8C0502E43C1F8C0606A
:102B00002064D1F880604AF2704526F4F816C4F2C9
:102B1000000546EA0242C1F880206564D1F88020B1
:102B200022F0706242EA0362C1F8802005F14001A0
:102B3000A16405F58C71E16405F5F871216505F571
:102B400002716165002105F5037200BFC0E9001143
:102B5000C0E90211C0E90411C0E90611C0E9081179
:102B6000C0E90A11C0E90C11C0E90E11C0E9101149
:102B7000C0E91211C0E91411C0E91611C0E9181119
:102B8000C0E91A11C0E91C11C0E91E11C0E92011E9
:102B9000C0E92211C0E92411C0E92611C0E92811B9
:102BA000C0E92A11C0E92C11C0E92E11C0E9301189
:102BB000C0E93211C0F8D010904200F1D400C5D362
:102BC00000200121A065206684F85C1070BD000023
:102BD000006846F20041C4F20001884218BF704705
:102BE00080B586B041F24C00C4F20200C16B0222F3
:102BF00062F31961C163C16841F00071C160C168CD
:102C000001F0007101910199016841F00101016039
:102C1000006801A900F00100019001984FF4C05034
:102C2000CDE901020020CDE90300092005904FF015
:102C3000904000F0FFF906B0BDE88040704700000A
:102C400010B58AB042F24C14C2F2000404F114032D
:102C50006A464021FFF722FD10B10AB010BD00BF47
:102C6000009820610120A0700AB010BD70470000DC
:102C700090F85C1001290BD1022180F85C100168EA
:102C80008A6922F001028A610021016608467047C4
:102C9000016E41F004010166012070477047000099
:102CA0007047000070470000704700007047000048
:102CB000704700002DE9F04381B041F6B879C2F2C7
:102CC000000999F80020012A04D1022001B0BDE8D2
:102CD000F08300BF0546012089F800004FF47A70A8
:102CE0008846FFF7AFF928B1002189F8001001B03C
:102CF000BDE8F08342F200070020C4F20207C9F8E1
:102D000004003868396849053AD4C0F3402089F88E
:102D10001C002868012842D04FF0FF30C8F800009E
:102D2000D5E902402044844221D2E600786906F4C5
:102D3000FF6120F4FC7008437861786940F002007C
:102D40007861786940F4803078614FF47A70FFF7E9
:102D500079F97969002821F4FD71796162D1D5E9A9
:102D6000020101340844844206F10806DED3002043
:102D700099F81C1001F0FD02012A29D038E000BFAB
:102D8000396810F400704FF0030021F4806108BF2F
:102D90000220396089F81C0028680128BCD12879F4
:102DA000C00703D0786940F004007861786940F486
:102DB000803078614FF47A70FFF744F9796921F037
:102DC0000401796199F81C1001F0FD02012A0FD16C
:102DD0003A6822F400723A603A6842F400623A605B
:102DE0003A6822F400623A603A6842F400723A604B
:102DF00001F0FE0102290BD1396841F4805139609C
:102E0000396821F480513960396841F48061396052
:102E1000002189F81C10002189F8001001B0BDE8DC
:102E2000F08300BFC8F8004099F81C1001F0FD02C3
:102E3000012ACDD0DCE7000042F21400C4F2020007
:102E4000016841F0004101600068C043C00F704755
:102E50002DE9F04741F6B879C2F20009924699F897
:102E60000020012A04BF0220BDE8F087804642F21C
:102E7000100501201F460E46C4F2020589F8000025
:102E800000F0A8F9044600BF2868C0030CD500F084
:102E9000A1F9001BB0F57A7FF6D90324002089F848
:102EA00000002046BDE8F08728684CF2FA3108405F
:102EB0000CD0D9F8041001240143C9F8041028608B
:102EC000002089F800002046BDE8F0872868C00788
:102ED0001CBF012028600020C9F8040055F8101C10
:102EE000490506D555F8100C20F4806045F8100C03
:102EF0000220B8F1000F89F81C0045D0B8F1020F8C
:102F000050D86868AAF1400240F480206860EFF36E
:102F10001080EFF3108172B6A6F14001402300BF8C
:102F200052F8407F103B41F8407F57681E064F60C3
:102F300097688F60D768CF6017690F6157694F61D5
:102F400097698F61D769CF61176A0F62576A4F62BD
:102F5000976A8F62D76ACF62176B0F63576B4F63A5
:102F6000976B8F63D76BCF63DAD1B8F1020718BFC5
:102F7000012780F310886FF48026B8F1020F18BF84
:102F80004FF0FF3611E000BF686840F00100686054
:102F9000C6F800A0BFF36F8F77606FF001060027BF
:102FA00003E000BF4FF0FF36012700F013F904469D
:102FB0002868C00308D500F00DF9001BB0F57A7F32
:102FC000F6D9032412E000BF28684CF2FA31084019
:102FD00006D0D9F8041001240143C9F8041004E014
:102FE00028680024C00701D00120286017B968684C
:102FF00030406860FEF7EEFF002089F800002046B0
:10300000BDE8F08742F20800C4F20200C168B1F1E5
:10301000FF3FC4BF0020704740F22311C4F2675144
:10302000016048F6AB11CCF6EF510160C068C00FEB
:10303000704700002DE9F04F82B00D68002D00F0C0
:10304000C58000F13847860546EA972741F20046D9
:10305000C4F60006062240F2004EB04208BF052228
:10306000C4F2010E052F38BF3A464FF0000C012480
:1030700000270026009209E00D68013635FA06F2B5
:1030800007F102070CF1040C00F0A08004FA06FB23
:1030900015EA0B08F0D0D1F804A003230AF00305C9
:1030A0006A1EBB40012A6FEA03090FD88268CB6809
:1030B00002EA0902BB401A4382604268CAF3001365
:1030C00022EA0B02B3401A43426003E0032D01D110
:1030D00003251FE0C2688B6802EA0902BB401A435D
:1030E000022DC26016D16FF0030202EA56020244BA
:1030F0000CF01C050F23D2F820A003FA05FB0B6986
:103100002AEA0B0AAB4043EA0A031362D1F804A08F
:103110000AF00305026805FA07F302EA09021A43F6
:103120001AF4403F0260A7D041F26003C4F20203E8
:103130001A684FF6084A42F001021A601A68CFF680
:10314000FF7A02F001020192019A26F00302724412
:1031500052F80A900CF00C050F23009CAB4029EAB2
:10316000030304FA05F52B4342F80A30DEF8082081
:103170004B6842EA080540F20C49DC0258BF22EADB
:103180000805CEF80850C4F20109D9F800209D02C4
:1031900042EA080458BF22EA0804C9F80040DEF8F1
:1031A00004209D0342EA080458BF22EA0804CEF82E
:1031B0000440DEF80020DB0342EA080458BF22EA9C
:1031C0000804CEF80040012456E700BF02B0BDE875
:1031D000F08F000044F2E850C2F20000006870472F
:1031E00040F2000044F2E851C2F20000C2F20001D5
:1031F00040680A68104408607047000080B542F2D9
:103200000000C4F20200016841F4807101600320F3
:1032100000F090F8042000F009F800281CBF0120FD
:1032200080BD00F029F8002080BD000070B540F29C
:103230000006C2F200067168E1B1044641F628605A
:10324000C2F200004FF47A720068B2FBF1F1B0FBF9
:10325000F1F000F093F80F2C4FF0010508D838B9C1
:103260004FF0FF3021460022002500F037F834608F
:10327000284670BD012070BD80B582B041F2580073
:10328000C4F20200816841F001018160816801F0AF
:10329000010101910199016841F0805101600068CC
:1032A00000F0805000900098042000F043F802B035
:1032B000BDE8804000F050B8002848BF704700F0DB
:1032C0001F01012202FA01F11C2202EAD0004EF293
:1032D0000012CEF2000281507047000010B54EF689
:1032E0000C5CCEF2000CDCF80030C3F3022E8EF042
:1032F0000704042C28BF0424BEF103034FF0FF3E53
:103300000EFA04F438BF0023A14399400EFA03F3E8
:103310009A43114300F00F0200F160430901043A9F
:1033200003F564436244002848BF02F10C0319709E
:1033300010BD00004EF60C51CEF200010A684FF6A7
:10334000FF031A4060F30A2242F0806040F0FD70F3
:103350000860704707F032FB47F20800C4F2000033
:10336000016841F4804101607047000041F6286027
:10337000C2F200000068704770470000411E002044
:10338000B0EB116F1CBF012070474EF21002CEF25D
:10339000000251604EF62351CEF20001F0230B7073
:1033A0000721906011607047FFF7E6BF00F038001A
:1033B000082804BF01207047182804BF0420704764
:1033C000102814BF002002207047000000F03802CF
:1033D000102A40F07F8020F00700B0F5196F15DB50
:1033E000B0F5296F28DAB0F5216F49DAB0F5196F19
:1033F00078D0B0F51D6F6DD140F63430C2F20000C8
:10340000006A00F1120200200A607047B0F5096FEF
:1034100024DBB0F5116F41DAB0F5096F6CD0B0F56F
:103420000D6F57D140F63430C2F20000006A00F14F
:10343000080200200A607047B0F5316F3CDAB0F541
:10344000296F63D0B0F52D6F44D140F21810C2F24D
:103450000000021D00200A60704700BFB0F5FA6F3F
:103460005ED0B0F5016F63D0B0F5056F32D140F694
:103470003430C2F20000006A021D00200A6070476A
:1034800060D0B0F5256F25D140F63430C2F200008F
:10349000006A00F1160200200A6070475CD0B0F5A7
:1034A000156F17D140F63430C2F20000006A00F107
:1034B0000C0200200A60704758D041F6D04290427A
:1034C00008D141F67860C2F20000021D00200A60B7
:1034D000704700BF42F290120520C2F200020A605B
:1034E000704700BF40F63430C2F20000006A00F1BD
:1034F0000E0200200A60704740F63430C2F200002D
:10350000006A821D00200A60704700BF40F6343018
:10351000C2F20000006A00F1180200200A60704741
:1035200040F63430C2F20000026A00200A607047A0
:1035300040F63430C2F20000006A821C00200A60AB
:10354000704700BF40F63430C2F20000006A00F15C
:10355000140200200A60704740F63430C2F20000C6
:10356000006A00F10A0200200A60704740F2181059
:10357000C2F2000000F10C0200200A607047000057
:1035800006F0CAF9FEE70000B0B5044642F24C105E
:10359000C2F2000094F8541042F24D150078C2F2C5
:1035A000000501F0FC012A78084340EA4201206846
:1035B00084F8541001F03CF8A0F10A0102290BD361
:1035C00006281BD020BB94F85400C00720D02068E8
:1035D000BDE8B04001F07AB894F85400800758BFB5
:1035E000B0BD206800F0BCFF94F8540000F0FD006E
:1035F00084F85400002028700AE000BF94F85400BA
:10360000C00705D12068BDE8B04001F073B800BF25
:10361000B0BD000010B50446006801F009F80628A6
:1036200018BF10BDD4E90F10814205D0A06B012254
:1036300002F000FFE06B2064A06B02F04BFF2168FA
:103640000246C96A0846114602F044FD226801B2EA
:1036500010460022BDE8104000F074BF10B50446CB
:103660000068C16AC069096805F092FB2068BDE87E
:10367000104001F01DB80000B0B5044600680021FC
:103680000022002500F05EFF206800F091FF014657
:10369000A06BC4E90F5102F091FE2068C06ABDE83A
:1036A000B04002F011BD000070B50446006800F0A3
:1036B000BFFF062824D068BB94F83A00C00708BFB3
:1036C00070BDE08E228F01B280EAE130A0EBE131E3
:1036D0002068A58E806A01FB02F60021002206F018
:1036E00037FE2068290400F0B1FF2068B4F93610D5
:1036F000B2B200F027FF2068BDE8704000F0E6BFDE
:1037000094F83A00C00705D12068BDE8704000F089
:10371000F1BF00BF70BD0000006800F0AFBF000047
:103720000822C5F200021368D2F800211A43D2071A
:103730001CBF0120704780B5D1E900C3826843F205
:10374000E00ECFF6C07E0EEA020E5BB1D1E90212A6
:10375000114341EA0E0141EA0C0119438160002046
:1037600080BD00BF4EEA0C018160002080BD0000DA
:103770008268D2071CBF0120704780B5D1F804C011
:10378000C368BCF1000F23F0047E05D0D1E9022309
:103790001A4342EA0E0302E0CA684EEA0203C3601B
:1037A000C26C40F2FF1309689A43114341EA0C01CD
:1037B000C164002080BD00008268D2071CBF0120C8
:1037C0007047C2684CF2180322EA030CD1E90032B8
:1037D000896843EA0C031A431143C1600020704713
:1037E0008268D2071CBF01207047B0B5D1E900C282
:1037F000C3684CF21C0ECFF6F07E0EEA030E3AB10F
:1038000001F1080538CD496923432B4304E000BF8B
:10381000D1E9033449692343194341EA0C0141EAE0
:103820000E01C160016B21F00F0111430163002003
:10383000B0BD00002DE9F04F0C6894FAA4F2B2FA82
:1038400082F234FA02F363D04FF001084FF0030B19
:103850000BE000BFD1E900470568B7402B403B4370
:103860000360013234FA02F352D008FA02F314EA88
:10387000030CF6D0D1F80490A9F10103022B1BD25E
:103880009CFAACF6B6FA86F77E00D0F808A00BFAE0
:1038900006F3D1E902BE2AEA030A0BFA06F545EA65
:1038A0000A05856045684FF0030BA5430EFB04F441
:1038B000DB432543456007E09CFAACF3B3FA83F79A
:1038C0007E000BFA06F3DB430D69C468B5401C406B
:1038D0002543B9F1020FC560BCD14FEA1C2494FA0C
:1038E000A4F4D1F814E0BCF5807F28BFB4FA84F7C3
:1038F0004FF0240438BF202450F804C0BF000F2527
:10390000BD402CEA05050EFA07F72F430751A1E742
:103910000020BDE8F08F000010B50246006820F0DE
:10392000010010601068D1E901C320F4F85ED1E90C
:10393000030443EA002040EA0E001060C2F810C001
:10394000106840F001001060906820F40040906022
:10395000D1F818C0936840F2FF7023EA000040EAF3
:103960000C0040EA040090601CB1906840F40040F4
:10397000906010680B6820F440101843496910608B
:10398000506820F4004001430020516010BD000049
:103990000268002A44BF0120704710B5D1E900E257
:1039A000D1F808C003684FF21374CFF6F974602A97
:1039B00003EA040302D14EEA030103E0C968194394
:1039C00041EA0E0141EA0C0111430160002010BDE3
:1039D00080B541F2080EC4F2020EDEF8002002F0BB
:1039E0000C0342F200420C2BC0F2F40206D0082B6A
:1039F00024D141F20022C0F27A021FE0DEF8043046
:103A000003F00303032B04BF41F20022C0F27A0249
:103A1000DEF80430C3F3062CDEF8043002FB0CFCA5
:103A2000C3F30313DEF804200133BCFBF3FCC2F341
:103A30004162022303EB4202BCFBF2F20260DEF8B9
:103A400000304CF2D431C3F30313C0F60001C95C5B
:103A50004CF2E43301F01F0122FA01F14160DEF87B
:103A60000020C0F60003C2F302229A5C02F01F029B
:103A700021FA02F28260DEF80020C2F3C2229A5CD0
:103A800002F01F02D140C16080BD0000C0281FD1DC
:103A900041F20C01C4F20201C86FC0B280090328D0
:103AA00022D0022816D0012826D151F8040C00F0AB
:103AB0000C0242F200400C2AC0F2F4002ED0082A78
:103AC00018BF704741F20020C0F27A00704700BF73
:103AD0000020704751F80C0C42F200414005C0F242
:103AE000F40101EAE0707047D1F884004FF400411E
:103AF00001EA8030704700BF51F8040C00F00C025E
:103B000042F200400C2AC0F2F40023D0082A3CD133
:103B100041F20020C0F27A0037E000BF0A6802F0EC
:103B20000302032A04BF41F20020C0F27A000A68AF
:103B30000B68C2F306225043C3F303120968013233
:103B4000B0FBF2F0C1F34161022202EB4101B0FB94
:103B5000F1F070470A6802F00302032A04BF41F241
:103B60000020C0F27A000A680B68C2F306225043B4
:103B7000C3F303120B680132B0FBF2F0C3F34162EE
:103B8000022303EB4202B0FBF2F051F8042C4CF29A
:103B9000D433C2F30312C0F600039A5C51F8041C3C
:103BA0004CF2E433C1F30221C0F60003595C02F089
:103BB0001F02D04001F01F01C8407047302857D085
:103BC0000C282BD003281CBF0020704741F20C01A9
:103BD000C4F20201C86F4FF4404262F39F00B0F19B
:103BE000031F4ED00222C0F20302904236D00122BF
:103BF000C0F2030290421ED051F8040C00F00C02F7
:103C000042F200400C2AC0F2F4006FD0082A40F0C3
:103C1000888041F20020C0F27A0082E041F20C017B
:103C2000C4F20201C86FC0F38100032829D0022822
:103C300014D001282CD151F8040C00F00C0242F2EF
:103C400000400C2AC0F2F40034D0082A02BF41F22E
:103C50000020C0F27A007047704700BF51F80C0C8A
:103C600042F200414005C0F2F40101EAE070704701
:103C700041F20C01C4F20201C86FC0F30110032825
:103C8000D5D1D1F884004FF4004101EA803070476B
:103C900051F8040C00F00C0242F200400C2AC0F271
:103CA000F4004FD0082A04BF41F20020C0F27A008D
:103CB00063E000BF0A6802F00302032A04BF41F276
:103CC0000020C0F27A000A680B68C2F30622504353
:103CD000C3F3031209680132B0FBF2F0C1F3416192
:103CE000022202EB4101B0FBF1F070470A6802F0DA
:103CF0000302032A04BF41F20020C0F27A000A68DE
:103D00000B68C2F306225043C3F303120B6801325F
:103D1000B0FBF2F0C3F34162022303EB4202B0FBBB
:103D2000F2F051F8042C4CF2D433C2F30312C0F673
:103D300000039A5C51F8041C02F01F02C1F3C22177
:103D40002AE000BF0A6802F00302032A04BF41F21E
:103D50000020C0F27A000A680B68C2F306225043C2
:103D6000C3F303120B680132B0FBF2F0C3F34162FC
:103D7000022303EB4202B0FBF2F051F8042C4CF2A8
:103D8000D433C2F30312C0F600039A5C51F8041C4A
:103D900002F01F02C1F302214CF2E433C0F600032B
:103DA000595CD04001F01F01C840704702460068CE
:103DB00040063BD42DE9F04710684FF6BF73D1E9B8
:103DC000008E20EA030CD1E9024A4CEA0805D1E949
:103DD000046745EA0E05D1E9063045EA0A052E4397
:103DE0003343D1F820901843384340EA090010606B
:103DF000506840F60473984340EA1740002320437C
:103E0000B3EBD42F506003D1506840F48050506021
:103E1000B9F5005FBDE8F04704BF888C1061002051
:103E2000D16921F40061D161704700BF0120D169DF
:103E300021F40061D161704741F62861C2F20001AE
:103E40000860704770B58B6848F2FF348446087B81
:103E5000CEF6F074D1E900E22340184304F5806304
:103E60001A40104304F54062CB8902EA0E02104367
:103E700023F4C042D1E9043E04F5705633401843A0
:103E80001043CA6A04F5F8438D691A402EF0805336
:103E90001A4343F200432A43C4F201039C4542EA19
:103EA000000305D042F60040C4F20100844513D15E
:103EB0004FF6FF70CDF60F4001F11C0618404CCEB6
:103EC00026F00C56304322F00852896A104323F042
:103ED0000052104340EA01030020CCF8443070BD8A
:103EE00040F2FF7C02460068C4F2000C624521DD0E
:103EF00040F60003C4F200039A4224D043F2004388
:103F0000C4F201039A421ED042F60043C4F20103F8
:103F10009A4218D043F2FF33C4F201039A421CDCE8
:103F2000624529DCB2F1804F3CD040F20043C4F23C
:103F3000000335E0B2F1804F05D040F20043C4F2F7
:103F400000039A42E6D14B6820F07000184343F218
:103F5000FF33C4F201039A42E2DD44F2FF33C4F2BC
:103F600001039A4212DC43F20043C4F201039A4275
:103F700018D044F2000311E040F60003C4F200033D
:103F80009A420FD042F6004308E000BF44F6000317
:103F9000C4F201039A4205D044F20043C4F2010383
:103FA0009A4203D1CB6820F44070184310608868AF
:103FB0009305D062A2F18040A0F5963043EA9020AC
:103FC0000B880728936207D8012303FA00F010F04A
:103FD000E50F1CBF08691063506940F00101002023
:103FE000516170472DE9F041B1F5805F4FF0010359
:103FF00052DA012900F09280102900F0D380B1F547
:10400000807F40F09B81016A40F2FF1621F48071AD
:104010000162036A4168D0F81CC0146923F440733C
:104020002402B4432343A0F18044D2E900E5A4F57F
:104030009634860546EA9424072C43EA05231CD8C7
:10404000012505FA04F414F0E50F16D002F1140866
:1040500098E8600140F2FF77AD0223F44063946872
:10406000BD432B4343EA8423340142F20F0521F47C
:104070004051AC43214341EA48114FF68C74CFF6CE
:10408000FE740CEA040747EA0E074160C761D16875
:10409000C163036251E100BF00F0CC80B1F5803F05
:1040A00000F01081B1F5801F40F04881016AA0F155
:1040B000804521F480110162A5F596358605046AD4
:1040C000036DD2E900EC116946EA9525072D0DD85C
:1040D000012606FA05F515F0E50F1FBF456896693C
:1040E00025F4802545EA862518BF45600025CFF6D2
:1040F000E07524F4401405EA0151214348F6FF44D9
:10410000CFF6FF6404F54074234043EA0E230365B1
:10411000D26841EA0C51C2640EE100BF016A840515
:1041200021F001010162016A4368D0F818C01569E5
:1041300021F0030125F001052943A0F18045A5F5F3
:10414000963544EA9524D2E900E5072C41EA0501B9
:104150001AD8012505FA04F414F0E50F14D002F181
:10416000140898E860016FF0040721F00C019468CE
:1041700007EA8505294341EA840123F4407326F4C4
:104180000074234343EA48034FF68C74CFF6FE7461
:104190000CEA040747EA0E0743608761D26842636E
:1041A000CAE000BF016A6FF0100621F01001016241
:1041B000036A4168D0F818C0146923F0300306EA96
:1041C00004142343A0F18044D2E900E5A4F5963419
:1041D000860546EA9424072C43EA05131CD80125DA
:1041E00005FA04F414F0E50F16D002F1140898E86B
:1041F00060016FF0400723F0C003946807EA85155B
:104200002B4343EA8413B40040F6030521F44061D4
:10421000AC43214341EAC80148F6FF44CFF6FF64AE
:104220000CEA040747EA0E2741608761D168816381
:10423000036282E0016A41F6FF7621F48051016257
:10424000036A4168D0F81CC0146923F44053240366
:10425000B4432343A0F18044D2E900E5A4F59634A9
:10426000860546EA9424072C43EA05331CD8012529
:1042700005FA04F414F0E50F16D002F1140898E8DA
:10428000600147F6FF77AD0323F440439468BD43D4
:104290002B4343EA8433B40148F23F0521F4404103
:1042A000AC43214341EAC81148F6FF44CFF6FF640E
:1042B0000CEA040747EA0E274160C761D168016430
:1042C00003623AE0016AA0F1804521F48031016285
:1042D000A5F596358605036AD0F850C0D2E900E10D
:1042E000146946EA9525072D0DD8012606FA05F52D
:1042F00015F0E50F1FBF4568966925F4803545EA3E
:10430000062518BF45600025CFF6E07505F5F015C8
:1043100023F4403305EA0444234343EA01414FF6C2
:104320008C73CFF6FE73033303EA0C0343EA0E03E8
:104330000365D268836C8264016200231846BDE87D
:10434000F081000070B504460068C0071CBF012062
:1043500070BD0E46206846F6F311CEF6FF71084098
:10436000D6E9021CD6E904320843F5691843104324
:1043700028432060606820F4405040EA0C006060F0
:10438000B069A16821F440710843A06044F6FF3091
:10439000C4F2000084424FF0010011DC44F20041FD
:1043A000C4F200018C421DD044F60001C4F20001A9
:1043B0008C4244D13020FFF701FCE8B936E000BF61
:1043C00044F60041C4F200018C4211D043F60001D2
:1043D000C4F201018C4232D10320FFF7EFFB58B940
:1043E00024E000BF0C20FFF7E9FB28B91EE000BF66
:1043F000C020FFF74BFBC8B17168B9B132680B2A16
:104400001CD812A353F82220F369B0FBF2F0B3F5E5
:10441000004F0DD1400000EB5100B0FBF1F04FF622
:10442000F0710140C0F34200084406E0012006E0BC
:1044300000EB5100B0FBF1F080B2E0600020318869
:10444000E26A22F00F021143E16270BD0100000038
:104450000200000004000000060000000800000048
:104460000A0000000C000000100000002000000006
:1044700040000000800000000001000010B5D0E9FD
:10448000070404F05FFCE06010BD0000B0B5044616
:104490008079012818BFB0BDE0790138042849D8D7
:1044A000DFE800F012362C04040000BF236AA06A83
:1044B000B4F91410228B012583F8205005F048FF31
:1044C0000225A571B0BD00BFD4E90701002281F823
:1044D00020200321032504F057FCA06AB4F914102E
:1044E000228B05F035FFE069B4F91410228B04F03B
:1044F000D3FB002818BF0225A571B0BD206A012199
:1045000080F82010616AC1600225A571B0BD00BFAE
:10451000D4E90701002281F82020042104F034FCB2
:10452000E069B4F91610228B04F0B6FB10B1022535
:10453000A571B0BD0325A571B0BD000004210172B5
:1045400070470000818240F201110283C1807047F0
:10455000C18240F20121C1800421028301727047AF
:1045600010B5044600F064F80B281CBF002010BDF5
:10457000204600F01BF800284FF0000018BF10BDC7
:10458000A08002202070012010BD000043880B4352
:1045900023EA020283884280194381807047000029
:1045A000C069406904F00CBB007A704740887047CE
:1045B000C06A0068806870478188408841EA00408E
:1045C00070470000006A006870470000006A406899
:1045D00070470000006A806870470000016A006947
:1045E000B1F90A204068B1F9081000EE102AB8EEBF
:1045F000C00A01EE100A61EE000A00EE101AB8EED1
:10460000C00A21EE000A7047006AC06870470000C7
:10461000008B7047B0F9140070470000B0F9160025
:1046200070470000C06904F091BB000080887047AB
:1046300040787047006AB0F91A007047006AD0F8F5
:1046400016007047006AD0F81200704770B50D462A
:1046500004460E0CFFF7A8FF022807D1206A8581C7
:10466000C6810220A584E684207270BD40F201302C
:10467000E0800420A584E684207270BDB0B50446B5
:10468000D0E90701012281F820200221022504F04F
:104690007BFB2572B0BD0000B0B50446D0E9070130
:1046A000012581F82050012104F06EFB2572B0BD78
:1046B000B0B50446D0E90701002281F8202003218B
:1046C000032504F061FB2572B0BD000010B504465F
:1046D000FFF7AEFF38B92046FFF7A8FF18B920460C
:1046E000FFF764FF10B1002010BD00BF0120207053
:1046F000A07110BDB0B50446FFF79AFF05462046ED
:10470000FFF794FF18B92046FFF750FF10B10020C3
:10471000B0BD00BF4FF000002DB10C2D08BFB0BDE3
:10472000052020700120B0BDC0690021C160C161B9
:104730007047000046F634420114CFF6FF72514331
:104740004BF21A62CFF6FF7212FB001148F201031E
:1047500041F3CF32CFF6FF739A42C8BF13461A0413
:104760000023C7F6FF73B1F1404FB8BF03F5003225
:1047700080B2B1F1804FA4BF0022C7F6FF7210448F
:104780007047000010B50446084600F05DF810FBC5
:1047900004F12214031403FB121C48F201034CF32E
:1047A000CF32CFF6FF7310FB14F19A42D8BF1A46EE
:1047B00010FB241092B2BCF1404F40F3CF31B8BF90
:1047C00048F201029942C8BF0B4619040023B0F118
:1047D000404FC7F6FF73B8BF03F50031B0F1804F0B
:1047E000A4BF0021C7F6FF71BCF1804FA8BF47F6F8
:1047F000FF72881810BD000010B50446084600F08E
:1048000023F821B2021410FB14F302FB113110FB48
:1048100004F210FB34204900C1EAE03010BD000072
:104820000128BCBF00207047EFF3108172B640F63C
:104830000041C4F2020140F269120A6048608868CF
:1048400062B6C00B7047000040F6004100F1FE4028
:10485000C4F202014FF0601200F57F000A60486068
:10486000886870472DE9F047B1F800808146B8F1BB
:10487000000F55D0D9F80000C089804584BF0920B9
:10488000BDE8F087887899F81E3089F82100C8784B
:1048900089F823000A7989F825204A7917189F4258
:1048A00089F8272084BF0A20BDE8F087C24201F1C1
:1048B00006073DD14FF0000A062010FA8AF0404565
:1048C00084BF0920BDE8F087A8EB0A000238A9F8E8
:1048D0001A00387889F8290000284FF0000018BF26
:1048E000BDE8F087B9F8182089F829006AB1D9F82D
:1048F000141099F82A30D9F800008B52B9F8182012
:104900004768023292B20923B8470020A9F818007C
:1049100089F82A0089F81F0089F82200BDE8F0878D
:10492000B9F818200020002A89F82900DFD1ECE727
:10493000002600244FF0000A14E000BF2846FEF7CE
:1049400035FDD9F80C1001348855D9F80C0099F8C8
:10495000231099F82720805D1144E6B20237B14256
:104960008244A9D9D9F804003D8800EB8601284685
:10497000FEF72CFD99F82300E1B28142DED202203D
:10498000DFE700002DE9F0470446C07F94F82210CD
:1049900088425DD1228B0020002AE0773ED121465B
:1049A00051F8140B092203689847A8B342F28C11FE
:1049B000C2F200016069096894F82A20016094F845
:1049C00029000421218390424FF0000184F8201037
:1049D00022D084F82A0094F8210094F8232094F837
:1049E000273084F8220094F82500618B84F8242075
:1049F00084F82600A183D4E901101A44920084F8B7
:104A00002830FBF70EFD94F8232094F82730D4E9E2
:104A100003101A44FBF7C0FC228BDAB1A08B824250
:104A200000F2B38094F82490D4F81480B9F1000F08
:104A30005BD0D4F808E008EB0203B9F1040F09F0E9
:104A4000030C09D20025BCF1000F31D14DE000BFAD
:104A50000130E077BDE8F08709F0FC0AAEF11006FE
:104A60000020002556F8102F08381288776823F8A0
:104A70001520228BB168023222833A8803EB450766
:104A80007A80228B0435023222830988F268B98049
:104A9000218BAA4501F1020121831188F980218B24
:104AA00001F102022283DDD11B1ABCF1000F1CD0E0
:104AB0005EF82500BCF1010F00881880208B00F102
:104AC0000202228311D00EEB85004168BCF1020F77
:104AD00009885980218B01F10202228305D0806868
:104AE00000889880208B821C228394F82600FD2861
:104AF0004BD894F82010814244D194F8280000212A
:104B0000002884F8201040D000EB090CA56820692B
:104B1000494600BF55F8297096B23F6848F80670BC
:104B200010F809703A444F1CFFB2BC4522832CD9BF
:104B300055F8276093B2366848F80360C35D1A449D
:104B40008B1CDFB2BC4522831FD955F8273096B2A3
:104B50001B6848F80630C35D1A44CB1CDFB2BC4565
:104B6000228312D955F8273096B21B68043148F8D1
:104B70000630C35D5FFA81F91A44CC452283C9D857
:104B800003E000BF481C84F82000A08B91B2814252
:104B900098BFBDE8F08794F82600FE283CD194F831
:104BA0002800C8B394F82470D4F808E0D4E904636A
:104BB00000EB070C3D4600BF5EF8270091B200688D
:104BC0005850F05D0244681CC7B2BC45228323D90B
:104BD0005EF8270091B200685850F05D0244A81CAE
:104BE000C7B2BC45228317D95EF8270091B200688E
:104BF0005850F05D0244E81CC7B2BC4522830BD973
:104C00005EF8270091B2006804355850F05DEFB2AD
:104C10000244BC452283CFD8616994F82A3092B20D
:104C20008B522068228B4768023292B20923B84720
:104C300000202083BDE8F0872DE9F04F85B0D0E952
:104C40000027824637F8023BBAF80C6023F0FF05D4
:104C50000020B5F5807FA6F10206D1464FEAD301C8
:104C6000AAF80C60CAF80470928929F80E0F08BFE0
:104C7000C3F3C400B5F5807F08BF202120294FF081
:104C8000020B00F21381013B03F0070340F63435B9
:104C900003EB4303C2F2000505EB03150FFA86F898
:104CA000541EDFE811F0210029007B00BF00BB008B
:104CB000AD00B700C5000301C900030103010301F2
:104CC000CD000301D9000301030103010301030126
:104CD00003010301030103010301030103010301B4
:104CE000030103010301DD000420AAF80E00DAF835
:104CF000080001210170D7E0DAF808300020B8F18F
:104D0000010FADF81000AAF80E00C0F2CB8000250C
:104D10004FF0000B398801F00700012800F2B48041
:104D20004CF2CC32C0F600020393BB1C52F820C0F8
:104D3000A8F1020637B221F0070001F03801029312
:104D40001A4604AB0097E047BDF810102B06A6EBFF
:104D500001020FFA82F808BFB8F1000F00F09C8042
:104D6000220400F0B180039B00281870B9F80020DD
:104D700018BF4FF0010B01320728A9F8002000F0FE
:104D80008C800A2800F089800298013C4718013382
:104D9000B8F1000F05F10105BCDC7EE0DAF808503F
:104DA0000020B8F1000FADF81200AAF80E006BD089
:104DB00037F8021B01F00700012865D84CF2C43215
:104DC000C0F6000252F820C026B221F0070001F020
:104DD00038012A460DF112030096E047002851D110
:104DE000BDF81200B9F80010A8F10208014405440A
:104DF000A9F800105FEA0841A4EB0004D8D153E001
:104E00002846FFF715FC062804BF2846FFF78CFC50
:104E10004AE000BF2846FFF70BFC18B12846FFF711
:104E200069FC41E02846FFF751FC80F0010B3DE0B2
:104E30002846FFF795FB37E02846FFF71FFB33E0D6
:104E4000DAF808601FFA88F022B239464B4600961D
:104E500000F0B0F916E000BFFEF77CFA24E000BFD6
:104E6000012815D843F2B831C2F2000151F82050A0
:104E700075B1DAF808601FFA88F022B239464B465D
:104E80000096A847834611E04FF0010B0EE000BFEB
:104E90004FF00D0B0AE000BF83465FEA0B604FF056
:104EA000000003D1A9F800004FF0000BDAF8080069
:104EB000BAF80E1000F801B0BAF80E000130AAF8E6
:104EC0000E0005B0BDE8F08F4FF0080BEEE70000D4
:104ED00070B540F20C05C2F200056868C16A21B1E4
:104EE00090F83020002A18BF884700F05BF942F2A2
:104EF000FC060B28C2F2000634D8012101FA00F0AA
:104F000040F6014108422DD06C6894F8310028B178
:104F100094F8320000281CBF0020287030782978CF
:104F200088421FD02169002084F8300009B1204652
:104F300088472068FFF77CFB062802D12068FFF72E
:104F4000D9FB28784CF6B401C0F6000151F8204096
:104F5000A16811B120468847287801216C6084F847
:104F600030103070FCF7A4F840F6C410C2F2000014
:104F7000416B4AF2A002B1F87C10914208D0B1789E
:104F800031B9022129700321A0F858100120B07016
:104F900000F062FF002808BF70BD00F003F908B1FF
:104FA00070BD00BFFCF7EEFFBDE8704001F002B835
:104FB000B0B504F0B5F940F60850C2F200004168FF
:104FC000002918BF884740F6C410C2F200004168AB
:104FD000002918BF884740F2CC00C2F200004168A7
:104FE000002918BF884741F6A050C2F2000041686E
:104FF000002918BF884740F20C04C2F20004E16A9D
:1050000011B104F12800884740F6D820C2F2000010
:105010004168002918BF884740F62420C2F20000EA
:105020004168002918BF884700F09CFE42F2FC0549
:10503000C2F20005281D04F1080100F049FC002817
:1050400004BF01206870B0BD7047000070B544F225
:10505000AC54C2F200042078A8B140F2181040F617
:105060000856C2F200000025C2F200068560B06B4F
:105070000021C6E90F55756401F0A0F93068C06AD7
:1050800001F022F8257040F20C00C2F200004068E6
:10509000416921B190F83020002A18BF8847BDE847
:1050A0007040FCF7F9BB000070B540F20C00C2F292
:1050B00000004068816A21B190F83020002A18BFB2
:1050C000884742F2FC06C2F200067078012818BF39
:1050D00070BD40F67C20C2F20000448940F68C206E
:1050E000C2F20000458900F03FF8BDEEC00A10EEA4
:1050F000103A301D21462A46BDE8704000F056BBEC
:1051000080B504F035F940F20C00C2F200004068AE
:10511000016A002908BF80BD90F8302012B1BDE8B7
:105120008040084780BD000040F20C00C2F2000041
:105130004068C169002908BF704790F830200AB163
:10514000084700BF7047000040F20C00C2F20000A8
:105150004068C168002908BF704790F830200AB144
:10516000084700BF7047000080B544F29C50C2F26F
:1051700000000068FFF71CFA00EE100AB8EEC00A43
:1051800080BD000044F29C50C2F200000068FFF7AE
:1051900025BA000044F29C50C2F200000068FFF7FC
:1051A00045BA000044F29C50C2F200000068FFF7CC
:1051B0003FBA000002207047B0B542F2C405C2F207
:1051C00000052878002808BFB0BD04F0E9FBFFF710
:1051D00097FF40F6C824C2F20004206804F10C01D5
:1051E00082689047606080B1214651F8080B0A221E
:1051F0000368984748B12046FFF71EFD2068A16864
:10520000D0F804C0E2890A23E047688810B16888B2
:1052100001386880A88810B1A8880138A880BDE846
:10522000B04004F073BD0000002808BF7047F0B51F
:1052300081B042F2C40540F6343142F61047C2F262
:1052400000050026C2F20001C4F201072E700160C1
:10525000FDF75CF841F6B060C2F20000FBF780FE9B
:1052600040F6D030C2F2000000F0A6FB41F67860B4
:10527000C2F2000005F066F841F66860C2F2000074
:1052800002F0F2FA40F2B400C2F2000003F092FC25
:1052900041F62C60C2F2000002F0E6FA41F63C60F2
:1052A000C2F2000000F080F940F67C20C2F200005B
:1052B00002F0DAFA40F68C20C2F2000002F0D4FAD2
:1052C00042F29414C2F20004204603F06BFD204623
:1052D00003F014FE204640F2031103F043FE204683
:1052E00040F2011103F0F2FE204603F053FD0220CC
:1052F000FDF7A8F83868000644BF6FF080003860FA
:1053000042F26810C2F2000080F82160FFF750FE00
:1053100006F0A8FC0120287001B0BDE8F0407047FD
:1053200010B5044642F24C10C2F2000094F85A1034
:1053300042F24D120078C2F2000201F0FC01127834
:10534000084340EA4201206884F85A10FFF770F9D8
:10535000A0F10A0102290FD3062813D080B994F8CE
:105360005A00C0070CD020680021FFF76FF92068B1
:10537000BDE81040FFF7AAB994F85A1088070BD47B
:1053800010BD00BF94F85A00C00718BF10BD2068B8
:10539000BDE81040FFF7AEB9206801F0FD0184F8C8
:1053A0005A10BDE81040FFF7DBB8000010B5044606
:1053B00000680021A4F85A10FFF79CF92068BDE8A6
:1053C0001040FFF775B9000010B504460068FFF7FC
:1053D0002FF9062818BF10BD2068FFF7E9F800EE86
:1053E000100A9FED2C1AB8EEC00A206820EE010AC0
:1053F00084ED120AFFF7D4F800EE100A9FED261A8A
:10540000B8EEC00A20EE010A94ED0D1A94ED125A7E
:1054100094ED0E2A94ED0F3A94ED104A94ED116A32
:1054200031EE451A84ED130A23EE011A32EE400ADA
:1054300031EE061A24EE000A30EE010A9FED171A2B
:1054400084ED140A84ED150A20EE010ABDEEC00AAF
:1054500010EE100A44F234418842A4F8580009DCE6
:105460004BF6CB31CFF6FF71884206DC4BF6CC31E0
:10547000CFF6FF710846A4F8581042F29811C2F214
:10548000000108800020488020680968BDE81040BD
:10549000FFF7DCB8C3B8323735FA8E3D00E0B544CB
:1054A00000220021C4F2C8224FF07E5380F832104F
:1054B000C0E90D11C0E90F234164C0E914118165F1
:1054C0007047000010B50446006800210022FFF775
:1054D00039F82068FFF76CF800EE100A9FED041A07
:1054E000B8EEC00A20EE010A84ED0D0A10BD00BF1F
:1054F000C3B8323780B5FDF739FF44F6D351C1F256
:105500006201A0FB0101080AFDF738FF40F200002C
:10551000C2F2000001684FF0FF300022FDF7DEFE0E
:1055200044F29C50C2F20000FFF77EFEBDE88040CE
:1055300006F076BA0246007810B10020108170475C
:105540004FF6FF70814250881EBF091A00EB1120F0
:105550005080B2F90E30518980B2012B06DB8842AF
:1055600006D891898842E8D309E000BF884203D277
:1055700008201081704700BF91898842DDD81089CA
:1055800010817047017819B1C08800B2704700BF20
:1055900041880269891AB0F90E20808A514300EBD4
:1055A000114000B270470000017829B181880022C3
:1055B00002814180704700BFB0F90E200021012A0E
:1055C000B8BF4FF0FF3141807047000080B590B008
:1055D0000C900B910A920B9818B1FFE70A9820B92A
:1055E000FFE700208DF837005EE0FDF70BFD00209F
:1055F00005900690012007900C9901F17841C90AA5
:1056000008910990EFF3108072B60F9006A805A9D3
:10561000FDF750FB38B1FFE7FDF70EFC62B6002046
:105620008DF8370040E062B60B9804900C98039018
:105630000A980730C008ADF80A0000200190FFE783
:105640000198BDF80A10884228D2FFE7EFF31080D6
:1056500072B60E900399049A019B02EBC30052F8B4
:10566000332043680020FDF7F3FB014643F2284056
:10567000C2F200000170007838B1FFE7FDF7DCFBF3
:1056800062B600208DF837000EE062B6039808304D
:105690000390FFE7019801300190D1E7FDF7CCFBC3
:1056A00001208DF83700FFE79DF8370010B080BD6E
:1056B00086B0ADF81600ADF81410ADF81220BDF8A4
:1056C000160000EE100AB8EE400A8DED020ABDF891
:1056D000140000EE100AB8EE400A8DED010ABDF884
:1056E000120000EE100AB8EE400A8DED000ABDF877
:1056F0001600BDF81410884203DDFFE70198029000
:105700000AE0BDF81600BDF81210884203DAFFE780
:1057100000980290FFE7FFE79DED020A9DED002A49
:1057200030EE420A30EE000A9DED011A31EE421AC7
:1057300080EE010AB7EE001A30EE410A8DED030A41
:105740009DED030AB4EE410AF1EE10FA04DDFFE725
:105750004FF07E5003900FE09DED030ABFEE001A5C
:10576000B4EE410AF1EE10FA05DAFFE70020CBF6BD
:1057700080700390FFE7FFE79DED030A06B07047D6
:105780008178002908BF7047C168C288B1F90C1040
:1057900083884A43002948BF5242991801817047C3
:1057A0000288C160028170470089704780B584B06B
:1057B0000390ADF80A10ADF80820ADF80630BDF83A
:1057C0000A0003990884BDF8080003994884BDF8CD
:1057D000060003994887BDF80A00039A1188528889
:1057E000FFF766FF039880ED090ABDF80800039AE9
:1057F0009188D288FFF75CFF039880ED0A0A03982E
:10580000FBF7FCFD039988860399888E0A8910446A
:10581000C8860399C88E0A31FCF706F8039981F807
:105820003800039890F83810BDF90620C38EFBF7B6
:1058300041FF039981F83900039991F83900C0EBD1
:105840000040BDF90620104448F63962C3F6E30271
:10585000A0FB02204008A1F8400040F21810C2F25C
:105860000000B0F97E00012808DBFFE703998A8E6B
:105870004FF6FF70801AA1F8440004E00399888E67
:10588000A1F84400FFE70399B1F848000130A1F8FE
:1058900048000398B0F84800B0F5FA6F14D1FFE75C
:1058A000039890F8470078B9FFE70398B0F84400F0
:1058B00000EBC00040F21811C2F2000188600399A9
:1058C000012081F84700FFE7002004B080BD000000
:1058D00080B584B0039002910298008803990880F3
:1058E00002984088039948800298808803998880AC
:1058F0000298C0880399C88002980089039908819A
:1059000003990020A1F84800039981F8470001900D
:10591000FFE701980A280EDCFFE70298019A00EBE6
:1059200042004089039901EB42014881FFE7019859
:1059300001300190EDE7039800F008F80399012089
:1059400081F84600002004B080BD000081B00090C6
:1059500000990020088400994884009948620099C1
:1059600088620099C8620099086300998886009946
:10597000C886009981F83800009981F839000099AB
:1059800048870099A1F840000099A1F8440001B0AF
:1059900070470000B0F9220070470000C08C7047CB
:1059A000B0F9060070470000C08B7047B0F90400E2
:1059B00070470000808B7047018C02684184002191
:1059C000C0E901218162704781607047418470475E
:1059D0000122C18402FA01F181847047C1807047BD
:1059E000B0B5054601208840688347F6FF700C4635
:1059F000E98300FA01F1284600F016F848F20100A8
:105A0000CFF6FF7000FA04F12846BDE8B04000F080
:105A100009B80000818070470122818302FA01F1F8
:105A20000183704701617047C160704770B50246DD
:105A3000B0F90430B0F90600B2F914C0B2F916405A
:105A400003FB01FEC0B1D2E9025300FB01F600FBEB
:105A5000015035400121C8F20001B5F1FF3FC8BF38
:105A60000146002848BF0146994206DC1369994265
:105A7000C8BF0B4601E000BF0023908BD18B4EFACC
:105A800000F043FA01F10844844507DA1FFA8CF468
:105A9000ACEB0001194420B2916070BD211AD8BF4F
:105AA0000021A042C8BF0446194420B2916070BDD5
:105AB000816800238A68D1F8121021FB0231CA17CD
:105AC000B0F9003001EB1241C3EB214101EB117140
:105AD00003EB11110180704710B52DED028B0446C8
