S31508000000300B0020790200088102000883020008EC
S31508000010850200088702000889020008000000001F
S315080000200000000000000000000000008B0200082D
S315080000308D020008000000008F0200089D1B0008C2
S31508000040930200089302000893020008930200082E
S31508000050930200089302000893020008930200081E
S31508000060930200089302000893020008930200080E
S3150800007093020008930200089302000893020008FE
S31508000080930200080000000093020008930200088B
S3150800009093020008930200089302000893020008DE
S315080000A093020008930200089302000893020008CE
S315080000B093020008930200089302000893020008BE
S315080000C093020008930200089302000893020008AE
S315080000D0930200089302000893020008930200089E
S315080000E0930200089302000893020008930200088E
S315080000F0930200089302000893020008000000001B
S3150800010000000000930200080000000093020008A7
S3150800011093020008000000009302000893020008FA
S31508000120930200089302000893020008930200084D
S315080001309302000800000000000000009302000877
S315080001409302000893020008000000000000000067
S315080001500000000000000000000000000000000091
S3150800016000000000000000000000000093020008E4
S3150800017093020008000000000000000000000000D4
S3150800018000000000930200080000000000000000C4
S315080001900000000000000000000000000000000051
S315080001A00000000000000000930200089302000807
S315080001B0930200089302000893020008000000005A
S315080001C00000000093020008000000000000000084
S315080001D0930200089302000800F002F800F03CF8C9
S315080001E00AA090E8000C82448344AAF10107DA4584
S315080001F001D100F031F8AFF2090EBAE80F0013F09A
S31508000200010F18BFFB1A43F00103184784200000AA
S31508000210A4200000103A24BF78C878C1FAD852073B
S3150800022024BF30C830C144BF04680C607047000062
S315080002300023002400250026103A28BF78C1FBD8E1
S31508000240520728BF30C148BF0B6070471FB501F081
S31508000250D5FF1FBD10B510BD00F031F81146FFF7E8
S31508000260F5FF01F0C4FF00F04FF803B4FFF7F2FF03
S3150800027003BC00F057F800000948804709480047C2
S31508000280FEE7FEE7FEE7FEE7FEE7FEE7FEE7FEE738
S31508000290FEE7FEE704480549054A064B7047000095
S315080002A0911C0008D901000830050020300B0020F9
S315080002B030070020300700207047704770477546A2
S315080002C000F02CF8AE4605006946534620F00700B4
S315080002D0854618B020B5FFF7DDFFBDE820404FF092
S315080002E000064FF000074FF000084FF0000B21F012
S315080002F00701AC46ACE8C009ACE8C009ACE8C009DF
S31508000300ACE8C0098D46704710B50446AFF30080C7
S315080003102046BDE81040FFF7A8BF00000048704718
S31508000320D004002001491820ABBEFEE726000200D3
S31508000330704700F038FAFCE710B500F009FA012812
S3150800034012D00A4C207801280ED101F0A9FCD4E974
S315080003500112114401F5FA71884205D30020207074
S31508000360BDE8104000F036BA10BD0000300000208D
S3150800037010B504490120087000F006F8BDE81040E1
S31508000380FFF7DABF3000002010B5044C20780128AA
S3150800039002D101F085FCA06010BD000030000020ED
S315080003A010B500F001FA00F0FDF901F081FC01F04A
S315080003B06DFB00F0C1F9BDE81040FFF7D9BF10B5D5
S315080003C000F0F1F901F0DAFC00F0CAF9BDE81040D6
S315080003D0FFF7B2BF2DE9FE4F4FF0000CA0F51C53F6
S315080003E0354C103BA34263D8F1B3EAB30B890293A9
S315080003F0B1F80C904B445B1C9FB2B1F80AA0CB89AC
S31508000400019353445B1C1FFA83F88B88CC880094AD
S315080004104BE00C6800FB07F5AC4249D3B4FBF3F597
S3150800042003FB1545F5BBB4FBF3F5B5FBF0F600FB8E
S315080004301655BDBBB4FBF3F4B4FBF0F4A4B2BC424E
S3150800044031D344452FD8092505EB44050A26B5FBC3
S31508000450F6F5AEB2A51B6D1EADB2DDF808B0AB451C
S3150800046021D8AA451FD300E022E0B1451BD8DDF804
S3150800047004B0B34517D305F1010B4FF0640E0BFB1F
S315080004800EFBBBFBF4F4E4B2413C0F2C0BD81380F3
S31508000490558096807008D08008B90120D0804FF02A
S315080004A0010C05E0FFE75B1C9BB2009C9C42B0D2A6
S315080004B06046BDE8FE8F0000F0EA7900F0B58DB021
S315080004C040F267660027019702972D4C2B4820605B
S315080004D0204600F014FF4FF0407001F06FFA0390C9
S315080004E00125ADF810506802ADF81200ADF81450A9
S315080004F04010ADF81600ADF818508020ADF81A0077
S3150800050001AA03A91F48FFF765FF20B94FF49F7199
S315080005101DA0FFF70EFF6760A760E7602574657486
S31508000520A774BDF804006061BDF80600E061BDF877
S3150800053008002062BDF80A00A0616562A562E5624E
S3150800054025636563A763E7630D4800F0E1FD079738
S31508000550089709950A950B960C9607A9084800F07E
S31508000560EAFC0222012311460548009500F012FD17
S31508000570034800F0C5FE0DB0F0BD00000064004061
S315080005806400002040420F002E2E5C2E2E5C2E2E7C
S315080005905C2E2E5C536F757263655C41524D434DFC
S315080005A0345F53544D333247345C63616E2E6300B7
S315080005B02DE9F0418AB080460F46002440F267666E
S315080005C001254021104800F002FD30B143466A4635
S315080005D040210D4800F008FD05468DB90098B04247
S315080005E002D1019800B90124012C09D10398C0B29F
S315080005F03870082804D940F2372104A0FFF799FE7D
S315080006000AB02046BDE8F081640000202E2E5C2E3C
S315080006102E5C2E2E5C2E2E5C536F757263655C41C4
S31508000620524D434D345F53544D333247345C636106
S315080006306E2E630070B58AB006460C4640F2E17528
S31508000640082C04D94FF4DC7117A0FFF772FE019548
S315080006500023029303930793059308935220099066
S3150800066006930494324601A9194800F03DFC044655
S31508000670174800F0AAFC0546002C12D1002D10D010
S3150800068001F00EFB00F1320405E000F08CF801F0F1
S3150800069007FBA04205D829460D4800F027FE00288A
S315080006A0F3D10AB070BD00002E2E5C2E2E5C2E2EC5
S315080006B05C2E2E5C536F757263655C41524D434DDB
S315080006C0345F53544D333247345C63616E2E630096
S315080006D064000020704700000A48007805280ED2FA
S315080006E0DFE800F0030507090B0081207047812029
S315080006F07047082070473F207047812070470820C0
S31508000700704700003C0000200A48007805280ED2F1
S31508000710DFE800F0030507090B00812070478120F8
S315080007207047082070473F2070478120704708208F
S31508000730704700003C00002010B501F0A3FCFFF74D
S31508000740BDFE02490220087010BD00003C000020D2
S3150800075010B5002401F0A2FC00B10124204610BD0A
S3150800076008B569460748FFF723FF012808D1054958
S315080007700220491E08709DF80010024801F098FCF6
S3150800078008BD00003D00002010B5054A1278022A6F
S3150800079002D1C9B2FFF74EFFBDE8104001F0F6BC22
S315080007A03C00002070477047AFF3008072B6704770
S315080007B062B6704770B505460C46164605E014F84D
S315080007C0010B05F8010BFFF7EEFF761EB6B2F6D25F
S315080007D070BD000010B501F05BF9002819D0FFF7CD
S315080007E079FF00F06BFB01F0ABFA01F04DF909490E
S315080007F008400949086001F047F9446801F044F9DE
S31508000800006880F30888FFF7D3FFA446BDE81040C8
S31508000810604710BD80FFFF1F08ED00E010B51549C1
S315080008200164036853F8802F848E22F4F81242EA92
S3150800083004421A600F4A70324264036853F8802FE4
S3150800084090F8384022F0706242EA04621A60094A57
S31508000850B0328264084AC264074AD8320265064A38
S31508000860F0324265002001F5547200E001C1914260
S31508000870FCD310BD00A4004088A50040F0B5D1E91E
S3150800088001650C692C430D68002E19D045F080458A
S315080008902C43D1E90665354391F820704E6946EA3E
S315080008A0076635438E8945EA0645406D03EBC30363
S315080008B000EBC3031C605D60083300200B4E0FE09D
S315080008C044EA8544E5E71418155CE77845EA0765C0
S315080008D0A77864783F0447EA0424254320C3001D0B
S315080008E0CC68345D8442EED8F0BD00001E220008B4
S315080008F0144A107F1449012801D003280FD10B6828
S3150800090023F400730B600B6843F400630B600B68F9
S3150800091023F400630B600B6843F400730B60022832
S3150800092001D003280BD1086840F480500860086895
S3150800093020F480500860086840F480600860002051
S31508000940107770471000002000200240C1070548B4
S3150800095003D0416941F004014161416941F48031A4
S31508000960416170470020024008494A69C0B222F432
S31508000970FC7242EAC0004861486940F002004861DA
S31508000980486940F480304861704700000020024002
S3150800099010B505494C6944F001044C610260BFF387
S315080009A06F8F436010BD00000020024010B5402242
S315080009B0084B5C6944F480245C61EFF3108372B6DB
S315080009C010C910C0521ED2B2002AF9D183F310887A
S315080009D010BD00000020024070B5054600F09AFDE3
S315080009E00646154C06E000F095FD801BA84201D985
S315080009F0032070BD2069C003F5D420694CF2FA3192
S31508000A00084088B10D494A6802434A60810F04D0FC
S31508000A10A16900F040421143A161810002D020F093
S31508000A2040402061012070BD2069C00701D0012027
S31508000A302061002070BD0000002002401000002048
S31508000A402DE9F04704460D461646984601274FEA13
S31508000A5055294FEA49292068401C05D149462046B0
S31508000A6000F04AF900B90027012F09D12068484546
S31508000A7006D04946204600F04FF9044604B9002737
S31508000A80012F1DD12068281A05192D1D4FF400794C
S31508000A90FFF789FE281B001F484508D32168204612
S31508000AA001F5007100F038F9044664B1251D16F801
S31508000AB0010B05F8010BA8F10108B8F1000FE7D101
S31508000AC03846BDE8F0870027FAE7000010B501248C
S31508000AD00A480068401C04D0084800F095F900B997
S31508000AE00024012C08D106480068401C04D004489C
S31508000AF000F08AF900B90024204610BDCC02002077
S31508000B00C80000202DE9F04106460D4601240F488D
S31508000B10821B681E824200D20024012C0DD1304669
S31508000B2000F0B6F807467019401E00F0B1F8014605
S31508000B30FF2F01D0FF2900D10024012C03D138460C
S31508000B4000F006F804462046BDE8F081FFFF0108DC
S31508000B502DE9F04385B00446884601260027049708
S31508000B600097019702970397444500D90026012E5E
S31508000B7003D1B8F10A0F00D90026012E35D100F0AD
S31508000B80B5FC1C49F00308612BE0FFF70CFE1A4878
S31508000B9050F8349000EBC4004568B9F1FF3F07D020
S31508000BA035B100F071F8B5FBF0F100FB115008B152
S31508000BB0002618E000F068F8B5FBF0F500974846FF
S31508000BC000F01CF80190484600F01EF802900395C4
S31508000BD004A9684600F0AAFB08B1002603E0641CD5
S31508000BE0E4B24445D1D900F019FC05B03046BDE859
S31508000BF0F0830000002002403822000801207047D8
S31508000C004FF000607047000070B50646124801882C
S31508000C10A1F57F42FF3A1CD00088000485093046BA
S31508000C20FFF7ECFFFFF7ECFF0446A64204D240F2BA
S31508000C30DB310AA0FFF77DFB341BAC4204D94FF425
S31508000C40787106A0FFF775FB00F01EF8B4FBF0F00C
S31508000C5070BD4FF40035E2E7E075FF1F2E2E5C2EBF
S31508000C602E5C2E2E5C2E2E5C536F757263655C416E
S31508000C70524D434D345F53544D333247345C666CA2
S31508000C806173682E630000004FF40060704700002F
S31508000C902DE9F0410546FF2700240B4EFFF783FD9B
S31508000CA056F83400A84207D806EBC4014968084438
S31508000CB0A84201D9274603E0641CE4B20B2CEDD305
S31508000CC03846BDE8F0810000382200080048704721
S31508000CD00030000806494FF0FF30086001F5017141
S31508000CE008600448016841F480710160704700009B
S31508000CF0C80000200020024010B50124CA0500D013
S31508000D000024012C06D102688A4203D002C062027E
S31508000D10FFF750FD204610BD70B505460E460E4835
S31508000D20854203D1A0F501752C460CE00B48864296
S31508000D3003D1094D06462C4605E02C46284600F008
S31508000D4063F800B900242CB131462846FFF7D4FFD2
S31508000D5000B90024204670BDCC02002000300008EF
S31508000D6001200A490A684B681A448B681A44CB68FA
S31508000D701A440B691A444B691A448B691A44D1F808
S31508000D80D8111144002900D000207047003000080F
S31508000D902DE9F04105460E46174601241648411B23
S31508000DA0701E814200D20024012C0BD12846FFF781
S31508000DB06FFFFF2805D0A819401EFFF769FFFF2817
S31508000DC000D10024012C13D1680A40020B4988423D
S31508000DD007D133463A4629460948FFF731FE044605
S31508000DE006E033463A4629460648FFF729FE0446F2
S31508000DF02046BDE8F0810000FFFF0108003000082A
S31508000E00CC020020C80000202DE9F04781464FF0AB
S31508000E100108D9F80000FFF73BFFFF2801D14FF082
S31508000E200008B8F1010F24D100F060FB0026D9F8BC
S31508000E30000000EBC60709EBC6035C689D68FFF770
S31508000E40B2FC22462B463946002000F0F5FA10B1CE
S31508000E504FF000080BE0386879686040694008433D
S31508000E6002D04FF0000802E0761C402EDFD300F0D7
S31508000E70D5FA4046BDE8F08708B501200021009163
S31508000E800C490A68521C14D048688A681044CA6813
S31508000E9010440A6910444A6910448A691044C969A9
S31508000EA00844C043401C00906A4604210248FFF7E4
S31508000EB06FFF08BDCC020020D831000810B50948DC
S31508000EC04FF0FF318163002282630164026481620C
S31508000ED08262C162C2620163026300F053FB0020B2
S31508000EE010BD00000010024070B5044694F85C007E
S31508000EF0022805D0206E40F008002066012070BD4B
S31508000F002068D0F8C4309B0205D5206E40F40070E6
S31508000F102066012070BDD0F8C400C0F301452B46F9
S31508000F202046FFF7ABFC21680120A840C1F8CC0099
S31508000F30A065002070BD10B590F85C20012A07D086
S31508000F40022A05D0016E41F002010166012010BD9A
S31508000F500A687AB10B7B0A6942EA43720C7A4B69D2
S31508000F6043EA8473406C496800EBC1000260436041
S31508000F70002010BD0B7A4A690C8A42EA83720B7B01
S31508000F80DB0643EA04431A43006C496800EB810018
S31508000F900260EDE730B5039C90F85C50012D05D052
S31508000FA0016E41F004010166012030BD09010068A7
S31508000FB041EA820141EA430150F8802F214322F099
S31508000FC03F0211430160002030BD806D7047006804
S31508000FD0402904D0D0F8980000F00F007047D0F8E8
S31508000FE0900000F00F007047F0B5002490F85C50B0
S31508000FF0022D05D0016E41F0080101660120F0BD01
S31508001000402942D00568D5F8986036075DD0D5F8EE
S315080010109860F60104D5D5F88060F60500D5012458
S31508001020D5F89850C5F301252E19C46C06EBC605EC
S3150800103004EBC5052C6804F080445460F4B32C68AE
S3150800104024F0604414602C6804F0005494602C6802
S3150800105004F000441461AC88A4B2D4616C68C4F38B
S315080010600344D4606C6804F4801454616C6804F416
S31508001070001494616C68C4F3066414626C680835DD
S31508001080E40F54620024214F2FE00568D5F89060DC
S31508001090360714D0D5F89060F60104D5D5F88060E7
S315080010A0B60500D50124D5F89050C5F301252E19AB
S315080010B0846C06EBC60504EBC505BBE70BE0016EC1
S315080010C041F4807101660120F0BD016E41F4807122
S315080010D001660120F0BD2C68C4F38A441460B2E7A7
S315080010E015F804C003F804C0641CD2F80CC017F83D
S315080010F00CC0A445F4D8402904D00068C0F89C6008
S315080011000020F0BD0068C0F89460F9E71E220008C8
S315080011102DE9F0470446002C07D0724F4FF440796A
S3150800112094F85C00002618B107E00120BDE8F087B6
S3150800113084F85D60204600F0E2F82068816921F0B5
S315080011401001816100F0E6F905464FF003080CE04E
S3150800115000F0E0F9401B0A2807D9206E40F001008C
S31508001160206684F85C800120E0E720688069000733
S31508001170EED42068816941F00101816100F0CAF965
S3150800118005460CE000F0C6F9401B0A2807D9206E70
S3150800119040F00100206684F85C800120C6E72068DC
S315080011A08069C007EED02068816941F0020181613B
S315080011B02068B84202D14C4960680860207C012842
S315080011C039D02068816941F040018161607C01283D
S315080011D037D02068816921F480418161A07C01288B
S315080011E035D02068816941F4805181612068816920
S315080011F0A26821F44071114381612068816921F058
S31508001200A40181612068016921F010010161E0688B
S31508001210012822D030B302282BD02068816941F0FA
S31508001220800181612068016941F010010161E0686F
S31508001230032818D022E02068816921F040018161E5
S31508001240C4E72068816941F480418161C6E7206866
S31508001250816921F480518161C8E72068816941F07C
S31508001260040181610AE02068816941F020018161F9
S3150800127004E02068816941F020018161207E401EDA
S315080012804106E069401E41EA0020216A491E0843DA
S31508001290A18A491E40EA01402168C861A0684845FC
S315080012A00FD1A06AE16A401E491E40EA0121206B5F
S315080012B0401E41EA0011A08C401E41EA0040216808
S315080012C0C860206850F8C01FE26B114301602046D1
S315080012D0FFF7A4FAA6652666012084F85C000020BC
S315080012E024E7000000640040006500400068D0F86C
S315080012F0C800084201D10020704701207047704796
S3150800130090F85C10012905D0016E41F004010166D0
S3150800131001207047022180F85C1001688A6922F072
S3150800132001028A6100210166002070472DE9F05FFD
S3150800133004468846374F387801280BD001253D707A
S315080013404FF47A7B5846FFF747FB06464FF0000AEC
S315080013501EB15AE00220BDE8F09FC7F804A0DFF8E6
S31508001360B890D9F8000080050ED5D9F800004005D8
S3150800137008D5D9F8000020F48060C9F800000320D9
S31508001380387710E03D770EE0D9F80000400508D51B
S31508001390D9F8000020F48060C9F8000002203877E8
S315080013A001E087F81CA02068012805D04FF0FF301F
S315080013B0C8F80000A56821E06068FFF7C7FA584634
S315080013C0FFF70AFB0646D9F8140020F00400C9F80E
S315080013D0140018E028466168FFF7C6FA5846FFF772
S315080013E0FBFA0646D9F8140020F4FD70C9F8140073
S315080013F0300002D0C8F8005005E06D1CD4E902019F
S315080014000844A842E6D8FFF773FA87F800A03046E2
S31508001410A1E7000010000020002002400120054935
S315080014204A6942F000424A614969002900DA002007
S3150800143070470000002002402DE9FF5F074614466A
S315080014401D460026DFF89C9099F8000001280CD06C
S31508001450012089F800004FF47A70FFF7BDFA80463C
S31508001460B346B8F1000F04D038E0022004B0BDE856
S31508001470F09FC9F804B0DFF870A0DAF8000040055C
S3150800148009D5DAF8000020F48060CAF800000220C6
S3150800149089F81C0001E089F81CB027B1012F09D092
S315080014A0022F07D00DE022462B460198FFF770FA67
S315080014B0012606E021460198FFF778FA022F00D1A7
S315080014C07E044FF47A70FFF787FA804626B1DAF879
S315080014D01400B043CAF81400FFF70AFA89F800B0F6
S315080014E04046C3E7100000200020024000200649BD
S315080014F04A69002A07DA054A8A60054A8A604969FC
S31508001500002900DA012070470020024023016745C0
S31508001510AB89EFCD00F0C4BB10B50024032000F062
S31508001520D1F8002000F008F808B1012401E000F025
S3150800153061F8204610BD000070B5054600240F4E20
S315080015407068002817D04FF47A71B1FBF0F00C4997
S315080015500968B1FBF0F000F0C7F808B101240BE008
S31508001560102D06D200222946501E00F08BF8356051
S3150800157002E0012400E00124204670BD040000209A
S315080015800000002010B500F0E9F920214FF0904442
S31508001590A162144800F0ECF8134800F0E9F8204678
S315080015A000F0E6F81148816D21F000718165C16C83
S315080015B021F00101C164C16C21F00201C164C16C52
S315080015C021F00401C1640A498A6822F480428A60CB
S315080015D0816D21F080518165016E21F0010101665E
S315080015E010BD000000080048000400480010024032
S315080015F00070004070B588B01F48016E41F00101C7
S315080016000166006E00F0010001904FF0805000F076
S31508001610A3F81A48816841F480418160012000F0EE
S315080016207FF8022000F07CF8042000F079F84FF0EB
S31508001630007000F091F84FF40056029601200390CE
S3150800164000240494059406940D4D02A9284600F03A
S31508001650E7F8AE624FF4C0500290022003900320D0
S315080016600490059406940920079002A9C00600F084
S31508001670D7F808B070BD00000010024000700040A6
S3150800168000080048F0B40D460D4B1B68C3F302234F
S31508001690C3F10704042C00D90424191D072901D213
S315080016A0002300E0DB1E012606FA04F1491E294044
S315080016B099409E40761E16403143F0BC00F087BD27
S315080016C00CED00E000F00701054A10684FF6FF032D
S315080016D0184040EA0120034908431060704700009B
S315080016E00CED00E00000FA0510B5401EB0F1807F51
S315080016F001D3012010BD4FF0E02460610F2160176F
S3150800170000F065FD0020A06107202061002010BDC3
S3150800171010B5FFF701FFBDE8104000F041BA000020
S3150800172008B50449CA6C0243CA64C96C01400091F1
S3150800173008BD0000001002400249CA6A0243CA6294
S3150800174070470000001002400249CA6A8243CA6212
S31508001750704700000010024008B504498A6D02432C
S315080017608A65896D0140009108BD0000001002409D
S3150800177010B50024B0F1904F09D0234988420DD105
S315080017800220FFF7D9FF0220FFF7DEFF39E001202C
S31508001790FFF7D2FF0120FFF7D7FF32E01B49884247
S315080017A006D10420FFF7C8FF0420FFF7CDFF28E085
S315080017B01749884206D10820FFF7BEFF0820FFF721
S315080017C0C3FF1EE01349884206D11020FFF7B4FF75
S315080017D01020FFF7B9FF14E00F49884206D12020F0
S315080017E0FFF7AAFF2020FFF7AFFF0AE00B49884260
S315080017F006D14020FFF7A0FF4020FFF7A5FF00E035
S315080018000124204610BD00000004004800080048D6
S31508001810000C004800100048001400480018004852
S315080018202DE9F0410A6892FAA2F2B2FA82F30F267B
S3150800183003258BE001249C402240002A7ED04C6878
S31508001840012C01D0022C20D18C68876892FAA2FC60
S31508001850BCFA8CFC4FEA4C0C05FA0CFC27EA0C0780
S3150800186092FAA2FCBCFA8CFC4FEA4C0C04FA0CF473
S3150800187027438760CF680C68D0F804C02CEA040CAC
S315080018807C434CEA040CC0F804C00C69C76892FA99
S31508001890A2FCBCFA8CFC4FEA4C0C05FA0CFC27EAB5
S315080018A00C0792FAA2FCBCFA8CFC4FEA4C0C04FA20
S315080018B00CF42743C7604C68022C30D1FF2A16D88F
S315080018C04C69076A92FAA2FCBCFA8CFC4FEA8C0CAB
S315080018D006FA0CFC27EA0C0792FAA2FCBCFA8CFC66
S315080018E04FEA8C0C04FA0CF42743076217E04F6999
S315080018F0D0F824C0140A94FAA4F8B8FA88F84FEA7B
S31508001900880806FA08F894FAA4F4B4FA84F4A40049
S315080019102CEA080CA7404CEA070CC0F824C04C680F
S31508001920076892FAA2FCBCFA8CFC4FEA4C0805FA46
S3150800193008FC27EA0C0792FAA2F200E005E0B2FAE0
S3150800194082F252009440274307605B1C0A6832FA09
S3150800195003F47FF46FAF0020BDE8F08110B5164C94
S31508001960206840F48070206000F05AF80028FBD008
S31508001970606820F0FE4040F0804060600120A06072
S31508001980A06800F00C000428FAD1800120602060CD
S3150800199000F056F80028FBD14FF48050E060002094
S315080019A0A06140F23B702062D4F8940040F4000035
S315080019B0C4F89400002010BD0010024010B501467E
S315080019C00024154AD2F888000840002808D0B0F14B
S315080019D0807F0CD0B0F1007F15D0641E204610BD64
S315080019E01068C0F340400028F8D00C4CF6E700F029
S315080019F027F80028F2D000F01BF80028EED000F0F7
S31508001A0081F80446EAE700F067F800F045F800F0C8
S31508001A1053F80446E2E700000010024000366E0163
S31508001A2002480068C0F3802070470000001002409A
S31508001A300248C068C0F3005070470000001002401A
S31508001A4002480068C0F3406070470000001002407A
S31508001A5003498A6822F0F00202438A607047000050
S31508001A60001002400149086070470000000000208D
S31508001A7010B5FFF701FA18B1BDE81040FFF726B810
S31508001A80002010BDFFF73EB8FFF720B9FFF722B9CF
S31508001A90FFF766B9FFF77CB90549896801F0F001D7
S31508001AA0044A0909515C01F01F01C840704700004B
S31508001AB000100240062200080549896801F4E06121
S31508001AC0044A02EB1121097801F01F01C84070474A
S31508001AD000100240162200080748806800F00C0132
S31508001AE00648042906D0082903D00C2902D100F09B
S31508001AF02FB8034870470000001002400024F40085
S31508001B0000366E010F4AD06800F003010E4802291C
S31508001B1002D0032900D10D48D168C1F306234343F7
S31508001B20D06800F0F000012101EB1010B3FBF0F3D0
S31508001B30D06800F4C00001EB50504000B3FBF0F051
S31508001B4070470000001002400024F40000366E01C1
S31508001B500F4AD06800F003010E48022902D0032973
S31508001B6000D10D48D168C1F306234343D06800F07D
S31508001B70F000012101EB1010B3FBF0F3D06800F080
S31508001B80C06001EB50604000B3FBF0F07047000006
S31508001B90001002400024F40000366E017047000071
S31508001BA038B53348016821F00F0141F0040101609E
S31508001BB0016801F00F010429FAD12E48016821F4C1
S31508001BC0807101602C4C206840F480702060206889
S31508001BD0C0F380200028FAD0606820F0FE4040F06C
S31508001BE080406060E16845F23250244A114008435B
S31508001BF0E060E06840F08070E060206840F0807047
S31508001C0020602068C0F340600028FAD0A06840F041
S31508001C100300A0608020FFF71BFFA06800F00C00FF
S31508001C200C28FAD15520009002E00098401E00903A
S31508001C3000980028F9D1FFF70BFFA06820F4E060B0
S31508001C40A060A06820F46050A0600D48FFF70AFF66
S31508001C500020FFF771FC18B194210AA0FEF769FB72
S31508001C6054F8880F20F0407040F00070206038BDAE
S31508001C700020024080700040001002400C80FFF9EE
S31508001C8080FE210A2E2E5C6D61696E2E63000000AF
S31508001C900248016841F470010160704788ED00E070
S31508001CA000B500F06BF80148406800BD4800002008
S31508001CB008B51D48016E41F400610166016E01F424
S31508001CC000610091816801F46051184A02EBD12144
S31508001CD0097801F01F0216490968D140806800F4A6
S31508001CE0605000281DD002204143124A012010608E
S31508001CF0104A4FF6FF702C3210600F48B1FBF0F017
S31508001D00401E111F08600B481430016841F001019C
S31508001D1001600A48002141600649243109680180AA
S31508001D2008BD0120E0E70000001002401622000866
S31508001D3000000020002C0140A08601004800002079
S31508001D400C48016C41F400610164016C21F40061E6
S31508001D500164016E21F4006101664FF0E021002064
S31508001D600861486188610448016841F000710160B2
S31508001D70704700000010024004ED00E00A480068C1
S31508001D800A4A1188401A80B264280CD36423B0FB2F
S31508001D90F3F053680344536000EBC00303EB0010F1
S31508001DA001EB800010807047242C01404800002079
S31508001DB038B5002500950A4CFF212170001D00F05A
S31508001DC056F901466A46206900F03DF96070211D02
S31508001DD0009800F0F1F9A570E5700820A08138BDDB
S31508001DE05000002070B500F0D7F90D4C012525727A
S31508001DF0FF202070002010216170A070FEF76CFC97
S31508001E00E070FEF781FC2071FEF77EFC000A607127
S31508001E10A571E5710820A081BDE87040FFF736BEC0
S31508001E205000002010B5054C0020207200F0B4F9CF
S31508001E30FF2020700120A08110BD00005000002066
S31508001E4010B5084CFF2020700748206100206070FC
S31508001E50A070E0700720211D00F0AEF90820A081CF
S31508001E6010BD0000500000202E2200080648FF2161
S31508001E70017000214170427A8270C170017141710E
S31508001E8006218181704700005000002070B5044685
S31508001E90FEF722FC6178801E884204DABDE87040AD
S31508001EA0222000F07FB90F4DFF2028700120A8815D
S31508001EB0617849B1A21C2869FFF7ECFD68B1617821
S31508001EC028690844286170BDFFF7D2FD0028FAD1B9
S31508001ED0BDE87040312000F065B9BDE8704031209A
S31508001EE000F060B95000002070B50A4D2C69001D3D
S31508001EF000F0BDF801462046FFF7C4FD20B1FF20DB
S31508001F0028700120A88170BDBDE87040312000F01E
S31508001F1049B900005000002070B50546FEF7DCFB05
S31508001F200B4C411E6A1C2069FFF7B4FD50B1FF2017
S31508001F302070FEF7D1FB2169401E0844206101206C
S31508001F40A08170BDBDE87040312000F02BB90000BB
S31508001F5050000020312000F025B9000010B5FEF72A
S31508001F6039FC0348FF2101700121818110BD000061
S31508001F705000002070B5074CFF20207000256570C2
S31508001F80A570FEF7A9FBE07025716571A57107209C
S31508001F90A08170BD5000002010B5054CFF212170AE
S31508001FA0001D00F064F820610120A08110BD00002A
S31508001FB05000002070B50446FEF78EFB6178401E7F
S31508001FC0884204DABDE87040222000F0EBB8201DF4
S31508001FD000F04DF8084D286162786B1C01461846DA
S31508001FE0FEF7E8FBFF202870617828690844286115
S31508001FF06078401CA88170BD50000020002000F0C9
S31508002000D1B8000070B50546FEF766FB6A78401E33
S31508002010904204DABDE87040222000F0C3B8074CAD
S31508002020601C2169FEF7C6FBFF20207069782069CD
S31508002030084420616878401CA08170BD50000020CB
S31508002040202000F0AFB82DE9F04104460E461746A9
S31508002050002505E014F8010B2844C5B2FEF7A3FBDA
S31508002060761E701CF6D13D600120BDE8F08101782E
S31508002070427841EA0221827841EA0241C07841EA7F
S31508002080006070470448002101720161C1728181B4
S315080020908172417270470000500000200348007AA0
S315080020A0002801D00120704700207047500000200A
S315080020B010B50178344CFF290FD0227A012A62D153
S315080020C0F32928D013DCD02937D009DCC92931D027
S315080020D0CC293ED0CF2942D138E0FFF783FE41E034
S315080020E0D12930D0D2292BD0F12938D134E0F4398E
S315080020F00B2934D2DFE801F009060C3333331233E7
S3150800210015181B00FFF77EFF2CE0FFF753FF29E0A9
S31508002110FFF742FF26E0FFF74BFE23E0FFF790FEAE
S3150800212020E0FFF76BFF1DE0FFF7A0FE1AE0FFF7C0
S3150800213079FE17E0FFF7F0FE14E0FFF7A7FE11E0BF
S31508002140FFF718FF0EE0FFF7CFFE0BE0FFF706FFDD
S3150800215008E0FFF7FFFE05E0FFF772FF02E0202028
S3150800216000F020F8E07A012802D1102000F01AF8D1
S31508002170B4F90C10002906DD0120E072BDE8104014
S31508002180014800F021B810BD500000200149002088
S31508002190C8727047500000200149002048727047F5
S315080021A0500000200349FE220A70487002208881E8
S315080021B070470000500000200870020A4A70020C9E
S315080021C08A70000EC870704789B2FEF7DDBA090733
S315080021D0090E002804DB00F1E02080F8001470479F
S315080021E000F00F0000F1E02080F8141D7047FFF79B
S315080021F08FFAFEF7D5F8FEF7E2F8FCE74FF04070E5
S31508002200E1EE100A7047000000000000000001021D
S315080022100304060708090000000001020304000180
S31508002220020304050607080C1014182030404F70E6
S31508002230656E424C54000000003000080010000093
S3150800224000400008001000000050000800100000C0
S315080022500060000800100000007000080010000070
S31508002260008000080040000000C000080040000090
S31508002270000001080040000000400108004000007E
S31508002280008001080040000000C00108004000006E
S31508002290B0220008000000205000000014020008C8
S315080022A00023000850000020E00A00003002000861
S315080022B00024F400100000000100000000000000E7
S315080022C00000000000000000000000000000000000
S315080022D001000000000000000000000000000000EF
S315080022E000000000000000000000000005000000DB
S315080022F000000000000000000000000000000000D0
S705080001D918
